:020000040000FA
:100000000C9458000C9480000C9480000C94800098
:100010000C9480000C9480000C9480000C94800060
:100020000C9480000C9480000C9480000C94800050
:100030000C9480000C9480000C9480000C94800040
:100040000C946D060C9480000C94DD060C94B7069D
:100050000C9480000C9480000C9480000C94800020
:100060000C940F070C94800000000000250028006D
:100070002B00040404040404040402020202020229
:10008000030303030303010204081020408001025C
:1000900004081020010204081020000000080002DB
:1000A00001000003040700000000000000002E080B
:1000B00011241FBECFEFD8E0DEBFCDBF23E0A6EDF9
:1000C000B1E001C01D92A634B207E1F711E0A0E053
:1000D000B1E0E2E2FDE102C005900D92A63DB1075C
:1000E000D9F710E0C8E5D0E004C02197FE010E94D6
:1000F000740CC735D107C9F70E9467080C948F0E9E
:100100000C94000090E0FC01E656FF4F2491FC01A6
:10011000EA57FF4F3491FC01EE58FF4FE491EE2374
:10012000C9F0222339F0233001F1A8F4213019F16C
:10013000223029F1F0E0EE0FFF1FE859FF4FA591A3
:10014000B4918FB7F894EC91611126C030953E239D
:100150003C938FBF08952730A9F02830C9F0243090
:1001600049F7809180008F7D03C0809180008F7758
:1001700080938000DFCF84B58F7784BDDBCF84B5DB
:100180008F7DFBCF8091B0008F778093B000D2CF6E
:100190008091B0008F7DF9CF3E2BDACF3FB7F89436
:1001A0008091410290914202A0914302B091440299
:1001B00026B5A89B05C02F3F19F00196A11DB11DC2
:1001C0003FBFBA2FA92F982F8827BC01CD01620FFE
:1001D000711D811D911D42E0660F771F881F991FB9
:1001E0004A95D1F70895089508950895AF92BF9262
:1001F000CF92DF92EF92FF920F931F93CF93DF93F3
:100200006C017B018B01040F151FEB015E01AE1821
:10021000BF08C017D10759F06991D601ED91FC9143
:100220000190F081E02DC6010995892B79F7C50170
:10023000DF91CF911F910F91FF90EF90DF90CF90C2
:10024000BF90AF900895FC01538D448D252F30E071
:10025000842F90E0821B930B541710F0CF960895D3
:1002600001970895FC01918D828D981761F0A28D00
:10027000AE0FBF2FB11D5D968C91928D9F5F9F73C6
:10028000928F90E008958FEF9FEF08952FB7F89425
:100290008091450290914602A0914702B091480298
:1002A0002FBF8093A1029093A202A093A302B093C8
:1002B000A40289E992E00E94320197FF26C02FB77D
:1002C000F8948091450290914602A0914702B09126
:1002D00048022FBF4091A1025091A2026091A30257
:1002E0007091A402841B950BA60BB70B40919D0245
:1002F00050919E0260919F027091A0028417950711
:10030000A607B707B0F28FEF9FEF0895FC01918D1C
:10031000828D981731F0828DE80FF11D858D90E068
:1003200008958FEF9FEF0895FC01918D228D892F05
:1003300090E0805C9F4F821B91098F7399270895ED
:1003400089E992E00E94940121E0892B09F420E0E0
:10035000822F089580E090E0892B29F00E94A0016F
:1003600081110C9400000895FC01A48DA80FB92FF1
:10037000B11DA35ABF4F2C91848D90E001968F73CD
:100380009927848FA689B7892C93A089B1898C91EC
:10039000837080648C93938D848D981306C002883B
:1003A000F389E02D80818F7D80830895EF92FF9205
:1003B0000F931F93CF93DF93EC0181E0888F9B8D88
:1003C0008C8D98131AC0E889F989808185FF15C042
:1003D0009FB7F894EE89FF896083E889F989808165
:1003E0008370806480839FBF81E090E0DF91CF9134
:1003F0001F910F91FF90EF900895F62E0B8D10E056
:100400000F5F1F4F0F731127E02E8C8D8E110CC0C4
:100410000FB607FCFACFE889F989808185FFF5CF0F
:10042000CE010E94B401F1CFEB8DEC0FFD2FF11D39
:10043000E35AFF4FF0829FB7F8940B8FEA89FB894C
:1004400080818062CFCFCF93DF93EC01888D8823AA
:10045000B9F0AA89BB89E889F9898C9185FD03C027
:10046000808186FD0DC00FB607FCF7CF8C9185FF0C
:10047000F2CF808185FFEDCFCE010E94B401E9CF9C
:10048000DF91CF9108952091F701260F3327331F75
:1004900021323105ECF420916F02FC0190E080E004
:1004A000243069F082E00895A091F7012191AC0118
:1004B00049525E4FA40FB52FB11D2C93019686179C
:1004C00098F38091F701680F6093F70180E0089539
:1004D00081E0089510926F0281E080936E02109285
:1004E000490261E082E10E94820061E083E10E94B2
:1004F0008200E9EBF0E080818E7F808380818D7FB8
:10050000808388E48093B80085E48093BC000895DC
:10051000CF93DF9391E09093D6018823B9F0C091F7
:10052000B800D091BA008091BC008A7B8093BC0057
:1005300060E082E10E94820060E083E10E9482002C
:100540000E946A02D093BA00C093B800DF91CF91A5
:1005500008958F929F92AF92BF92CF92DF92EF92C7
:10056000FF920F931F93CF93DF93D0919802D132D4
:1005700008F0D7C0182FC09197020E94CE006B01DF
:100580007C0180916F0281116BC082E080936F02C9
:1005900010936E028FEF80936D0210926C02D093D5
:1005A0006B02A7E7B2E0EBE4F2E080E0D81391C081
:1005B00010924A0280914A02CC0FC82BC0934A0283
:1005C00080914902813009F088C0109249020E944E
:1005D000CE006B017C0180914A028093BB00809128
:1005E000710290917202A0917302B0917402892BF2
:1005F0008A2B8B2BA1F00E94CE00009171021091EA
:10060000720220917302309174026C197D098E0977
:100610009F09061717072807390708F442C0809179
:10062000BC0083FDD8CF85EC8093BC000E94CE0037
:100630006B017C0180916F02823009F450C080917F
:100640006D028F3F09F46FC080916D02803209F412
:100650006CC080916D02803309F469C084E026C0CB
:100660008091710290917202A0917302B091740214
:10067000892B8A2B8B2B09F484CF0E94CE0080908B
:10068000710290907202A0907302B09074026C1983
:100690007D098E099F0986169706A806B90608F0F7
:1006A00070CF809170020E94880285E010927602DD
:1006B0001092980210927502DF91CF911F910F91C5
:1006C000FF90EF90DF90CF90BF90AF909F908F9072
:1006D00008959D9191938F5F69CF85EEA5CF80910D
:1006E000710290917202A0917302B0917402892BF1
:1006F0008A2B8B2B09F49ECF0E94CE0000917102B1
:100700001091720220917302309174026C197D096C
:100710008E099F09061717072807390708F08ACF9F
:10072000C0CF81E0C3CF80E0C1CF82E0BFCF83E004
:10073000BDCF0895E0911F0280911E02E81730F4AA
:10074000F0E0E05EFD4F808190E008958FEF9FEF35
:10075000089590911F0280911E022FEF3FEF98178E
:1007600048F4E92FF0E0E05EFD4F208130E09F5F2C
:1007700090931F02C901089580911E0290911F025B
:10078000891B990B0895CF92DF92EF92FF920F93FE
:100790001F93CF93DF937C01CB018A0120917502D7
:1007A000222389F0EB016B01C40ED51ECC15DD05AB
:1007B00069F06991D701ED91FC910190F081E02DF4
:1007C000C7010995F3CF642F0E944302C801DF914E
:1007D000CF911F910F91FF90EF90DF90CF900895F0
:1007E000CF93DF931F92CDB7DEB769832091750257
:1007F0002223F9F020919802203258F021E030E0D5
:10080000FC013383228390E080E00F90DF91CF9151
:10081000089580917602E82FF0E0E958FD4F998124
:1008200090838F5F809376028093980281E090E0BE
:10083000ECCF61E0CE0101960E944302F7CF682F12
:1008400086E393E00C94F00390E080E00895FC01CF
:1008500001900020E9F73197AF01481B590BBC010B
:1008600089E992E00C94F6008F929F92AF92BF922A
:100870000F931F93CF93DF93CDB7DEB7A1970FB63A
:10088000F894DEBF0FBECDBF19A2423008F44AE093
:100890008E010F5D1F4F842E912CB12CA12CA50130
:1008A00094010E94520CE62FB901CA01EA30F4F417
:1008B000E05DD801EE938D01232B242B252B79F7B6
:1008C00090E080E0109719F0CD010E942704A196D6
:1008D0000FB6F894DEBF0FBECDBFDF91CF911F9151
:1008E0000F91BF90AF909F908F900895E95CE1CFFA
:1008F000CF93DF930E942704EC018AE291E00E94EB
:1009000027048C0F9D1FDF91CF910895FC018081FA
:100910009181009711F00C94160D0895AF92BF923B
:10092000CF92DF92EF92FF920F931F93CF93DF93BB
:10093000DC01CD90DC901197C114D10439F01496EC
:10094000CD91DC918C017601209761F4DF91CF91FC
:100950001F910F91FF90EF90DF90CF90BF90AF90DD
:10096000089575015701BFEFAB1ABB0AF7018081EB
:10097000082E000C990B0E940F0C892B91F72197E0
:10098000CC0DDD1D8881082E000C990B0E940F0CE8
:10099000892B29F0CE15DF0510F02197F3CFAE019A
:1009A0004F5F5F4F4E195F09D80115965C934E93C8
:1009B0001497CE14DF0420F4B701C6010E945C0E28
:1009C000D801ED91FC91119714968D919C91E80FAF
:1009D000F91F1082BBCFCF93DF93FC0124813581B7
:1009E0004217530788F4C081D181FB016081718176
:1009F000CE01840F951F0E94750E009729F08C1B65
:100A00009D0BDF91CF9108958FEF9FEFFACF0F935A
:100A10001F93CF93DF93EC0188819981009759F060
:100A20002A813B812617370730F081E0DF91CF9193
:100A30001F910F9108958B016F5F7F4F0E949F0D53
:100A4000009759F0998388831B830A832C813D8109
:100A5000232B59F7FC011082E8CF80E0E7CFEF921B
:100A6000FF920F931F93CF93DF93EC017B018A01D9
:100A7000BA010E94070528813981811114C021150E
:100A8000310519F0C9010E94160D198218821D82C4
:100A90001C821B821A82CE01DF91CF911F910F9190
:100AA000FF90EF9008951D830C83B701C9010E9448
:100AB0006E0EF1CFFB01DC0111961C921E92139673
:100AC0001C921E92129715961C921E9214978617CE
:100AD000970749F0608171816115710521F04481AA
:100AE00055810C942F050895FC0111821082138208
:100AF000128215821482FB0101900020E9F73197E0
:100B0000AF01461B570B0C942F05AF92BF92CF92AB
:100B1000DF92EF92FF920F931F93CF93DF93EC013D
:100B20006B015A0179012417350720F48B2D5901E7
:100B3000E42EF82E6CE271E0CE010E947405D6011D
:100B400014960D911C91A016B10628F5E016F10639
:100B500008F48701D601ED91FC911197E00FF11F88
:100B6000F08010826D917C916A0D7B1D611571057D
:100B7000F1F0FB0101900020E9F73197AF01461B2E
:100B8000570BCE010E942F05F60180819181080F3D
:100B9000191FD801FC92CE01DF91CF911F910F91C7
:100BA000FF90EF90DF90CF90BF90AF900895888135
:100BB0009981009711F00E94160D198218821D82EA
:100BC0001C821B821A82E0CFEF92FF920F931F9339
:100BD000CF93DF9300D000D000D0CDB7DEB77C013B
:100BE0006DE271E0CE0101960E94740550E040E094
:100BF000BE016F5F7F4FC7010E94EB048C01CE01E5
:100C000001960E9486041016110664F5F7012481EE
:100C10003581A8014F5F5F4FB701CE0101960E9459
:100C20008505CE0101960E948E0489819A810097E4
:100C3000A9F00E94D30B8B01CE0101960E9486047D
:100C4000C80126960FB6F894DEBF0FBECDBFDF9168
:100C5000CF911F910F91FF90EF90089560E070E0A9
:100C6000CB01E9CF10E000E0EBCF85ED8093BC0035
:100C70008091710290917202A0917302B0917402FE
:100C80000796A11DB11D23E0B695A7959795879569
:100C90002A95D1F72091BC0024FD03C010926F0269
:100CA00008954091710250917202609173027091A7
:100CB0007402452B462B472B69F30097A105B1051C
:100CC00041F02AE22A95F1F700C00197A109B10984
:100CD000E1CF809170020C9488021F920F920FB6A0
:100CE0000F9211242F933F938F939F93AF93BF93B2
:100CF0008091450290914602A0914702B09148022E
:100D00003091400223E0230F2D3758F50196A11DA5
:100D1000B11D209340028093450290934602A09318
:100D20004702B09348028091410290914202A09103
:100D30004302B09144020196A11DB11D809341026E
:100D400090934202A0934302B0934402BF91AF91AB
:100D50009F918F913F912F910F900FBE0F901F90F9
:100D6000189526E8230F0296A11DB11DD2CF1F9220
:100D70000F920FB60F9211242F933F934F935F93CF
:100D80006F937F938F939F93AF93BF93EF93FF9353
:100D900089E992E00E94B401FF91EF91BF91AF9178
:100DA0009F918F917F916F915F914F913F912F9183
:100DB0000F900FBE0F901F9018951F920F920FB6B5
:100DC0000F9211242F938F939F93EF93FF93E091B2
:100DD000A902F091AA028081E091AF02F091B002E5
:100DE00082FD1BC090818091B2028F5F8F73209132
:100DF000B302821741F0E091B202F0E0E756FD4FF6
:100E0000958F8093B202FF91EF919F918F912F91D7
:100E10000F900FBE0F901F9018958081F4CF1F92F6
:100E20000F920FB60F9211242F933F934F935F931E
:100E30006F937F938F939F93AF93BF93EF93FF93A2
:100E40008091B900887F803609F44AC0F0F5883275
:100E500009F4A7C018F5803109F49BC0B8F48823C1
:100E600009F4F9C0883009F494C0FF91EF91BF9163
:100E7000AF919F918F917F916F915F914F913F9132
:100E80002F910F900FBE0F901F901895883109F485
:100E900088C0803251F780936D0214C0803409F409
:100EA0009DC040F48033B9F38833F9F680936D0226
:100EB00085ECB0C0803509F485C0883509F496C04A
:100EC000883499F60E943506D0CF883909F48CC051
:100ED00038F5883729F050F4883611F0803729F634
:100EE00083E080936F021092190257C0883809F48A
:100EF0007BC0803919F0803809F0B7CF8091190292
:100F0000803208F071C0E091190281E08E0F809369
:100F100019028091BB00F0E0E750FE4F80833DC096
:100F2000803B39F0E0F4803A09F479C0883A09F05E
:100F30009CCF84E080936F021092F8011092F70129
:100F4000E0911C02F0911D0209958091F701811139
:100F50000FC081E08093F7011092D70109C0803C57
:100F600009F4A6CF883C09F4A3CF883B09F07DCFD4
:100F7000E091F80181E08E0F8093F801F0E0E952F2
:100F8000FE4F80818093BB009091F8018091F70122
:100F900029C080914A028093BB0085EC8093BC00FD
:100FA00064CF90916C0280916B02981758F5E09194
:100FB0006C0281E08E0F80936C02F0E0E55BFD4FE8
:100FC0008081E9CFE0916C0281E08E0F80936C020A
:100FD0008091BB00F0E0E55BFD4F808390916C0257
:100FE00080916B029817C8F285E8D8CFE0916C0227
:100FF00081E08E0F80936C028091BB00F0E0E55B96
:10100000FD4F808380916E0281115CCF81E08093DF
:10101000490284EA8093BC0010926F0226CF85ECCF
:101020008093BC0010926F0280911902803230F4DC
:10103000E0911902F0E0E750FE4F10826091190232
:1010400070E0E0911A02F0911B0289EF91E009959E
:10105000109219020ACF10926D0234CFE9E9F2E042
:101060001382128288EE93E0A0E0B0E0848395833F
:10107000A683B7832AE031E03183208325EC30E07A
:101080003587248724EC30E03787268720EC30E052
:10109000318B208B21EC30E0338B228B22EC30E043
:1010A000358B248B26EC30E0378B268B118E128EFD
:1010B000138E148EE6E3F3E0138212828483958309
:1010C000A683B7838CE191E0918380830895CF93C9
:1010D000DF93CDB7DEB768970FB6F894DEBF0FBECB
:1010E000CDBF789484B5826084BD84B5816084BDB1
:1010F00085B5826085BD85B5816085BD80916E00B6
:10110000816080936E0010928100809181008260E6
:101110008093810080918100816080938100809123
:1011200080008160809380008091B1008460809312
:10113000B1008091B00081608093B00080917A000E
:10114000846080937A0080917A00826080937A0034
:1011500080917A00816080937A0080917A00806823
:1011600080937A001092C100E091A902F091AA0246
:1011700082E08083E091A502F091A6021082E091C6
:10118000A702F091A8028FEC80831092B102E09147
:10119000AD02F091AE0286E08083E091AB02F09167
:1011A000AC02808180618083E091AB02F091AC025F
:1011B000808188608083E091AB02F091AC028081F5
:1011C00080688083E091AB02F091AC0280818F7DDA
:1011D000808310921F0210921E02109276021092CB
:1011E00098020E946A0284EF90E090931D0280931F
:1011F0001C0285EF90E090931B0280931A02A0E0FE
:10120000AA2EA0E0BA2E11E000E599249A94F3E00A
:101210008F2E89E992E00E949401181619060CF0AD
:1012200084C26CE271E0CE0143960E9474050E9474
:10123000460197FD1FC08A309105E1F089831A822B
:10124000EF88F88C2FEFE21AF20AB701CE0143962D
:101250000E940705882359F32B893C898F89988D33
:10126000BE016F5F7F4F820F931F0E946E0EF88E3C
:10127000EF8ADDCFBE016D5E7F4FCE0107960E94E3
:101280005A056DE271E0CE0101960E94740550E0AE
:1012900040E0BE016F5F7F4FCE0107960E94EB04D6
:1012A0007C01CE0101960E9486046CE271E0CE01C1
:1012B0000D960E9474051E141F046CF5970150E0F2
:1012C00040E0BE01695F7F4FCE0101960E94850517
:1012D0008D859E85009709F4FBC069817A8161152F
:1012E000710509F4F3C04F8558892D813E8142175D
:1012F000530708F4EBC00E946E0E8D819E819A8B7D
:10130000898B1E821D82CE0101960E948604CE0129
:101310000D960E948E04CE0107960E94860489894C
:101320009A89892B09F4F9C1ED84FE846FE271E09A
:10133000C7010E94650E892B09F0E0C0BE016D5EF9
:101340007F4FCE0101960E945A05CE0101960E9460
:10135000E4056C01CE0101960E948604BE016D5E1B
:101360007F4FCE0107960E945A056DE271E0CE01D3
:1013700001960E94740550E040E0BE016F5F7F4F10
:10138000CE0107960E94EB047C01CE0101960E94DB
:101390008604412C512C32011E141F0494F56DE279
:1013A00071E0CE0101960E947405A7014F5F5F4F67
:1013B000BE016F5F7F4FCE0107960E94EB047C0158
:1013C000CE0101960E9486042B853C85A7014F5FC4
:1013D0005F4FBE01695F7F4FCE0101960E94850578
:1013E000CE0101960E948E0489819A81009709F4AA
:1013F00080C00E94D30B2B013C01CE0101960E94BC
:101400008604CE0107960E94860485E391E00E943F
:10141000780410937502009397021092760210924E
:1014200098028D2D90E00E941F04C60199270E940A
:101430001F04672D77278827992786E393E00E946A
:10144000F003B3018827992786E393E00E94F00315
:101450009927872D762D652D86E393E00E94F00372
:10146000642D86E393E00E94F00381E00E94A902CC
:10147000F82E80EB91E0F1108EC10E94CE002B017E
:101480003C0154E6C52ED12CE12CF12C0E94CE005B
:101490006419750986099709683E734081059105AD
:1014A000A8F381E0C81AD108E108F10828EE420E3D
:1014B00023E0521E611C711CC114D104E104F1042B
:1014C00029F78CE891E00E94780427C10E94160D4C
:1014D00089819A819E878D878B819C81988B8F874C
:1014E0008D819E819A8B898B1A8219821C821B8224
:1014F00008CF60E070E080E090E07DCF61E471E0D3
:10150000C7010E94650E892B09F007C1BE016D5EFF
:101510007F4FCE0101960E945A05CE0101960E948E
:10152000E4057C01CE0101960E94860486E491E0E8
:101530000E9478041093750200939702109276022D
:10154000109298028F2D90E00E941F04C7019927E6
:101550000E941F0481E00E94A902F82E811119C186
:101560000E94CE006B017C0180916F02811162C0EC
:1015700010936F0210936E0290926D0210926C02A3
:1015800080926B0210934A0280914A02806A809393
:101590004A0280914902813009F0D3C01092490279
:1015A0000E94CE006B017C0180914A028093BB00B7
:1015B0008091710290917202A0917302B0917402B5
:1015C000892B8A2B8B2BA1F00E94CE0020917102D7
:1015D0003091720240917302509174026C197D092E
:1015E0008E099F09261737074807590708F443C093
:1015F0008091BC0083FDD8CF85EC8093BC000E9415
:10160000CE006B017C0180916F02813009F49BC098
:1016100080916C02843008F0B8C080916C02EBE4D9
:10162000F2E0A0E2B2E090E0981751F121912D9301
:101630009F5FFACF8091710290917202A091730224
:10164000B0917402892B8A2B8B2B09F48DCF0E94C9
:10165000CE0020917102309172024091730250913C
:1016600074026C197D098E099F09261737074807F0
:10167000590708F079CF809170020E94880280E0BB
:1016800010921F0280931E02843009F080C086E30E
:1016900093E00E94A9031C0186E393E00E94A90342
:1016A000032C000C44085508522C442433242224D3
:1016B000092E000CAA0BBB0BDC0199278827282ACE
:1016C000392A4A2A5B2A86E393E00E94A9036C0127
:1016D00086E393E00E94A903092E000CAA0BBB0B22
:1016E00082299329A429B5290D2C000CEE08FF08A6
:1016F000FE2CED2CDC2CCC24C82AD92AEA2AFB2A81
:1017000082E591E00E9427044AE0C701B6010E94E9
:1017100034048AE291E00E942704CE010D960E94D3
:101720008604CE0143960E948604A114B10409F4F4
:1017300070CD0E94A001882309F466CD0E940000AC
:1017400063CD85EE5ACF8091710290917202A09183
:101750007302B0917402892B8A2B8B2B09F453CF1F
:101760000E94CE002091710230917202409173026A
:10177000509174026C197D098E099F09261737074D
:101780004807590708F03FCF76CF84E048CF85E07F
:10179000F82E87E691E00E9427046F2D70E090E01C
:1017A00080E04AE0B4CF1F93FC0199278827BC0151
:1017B000E89411911032E9F3193010F01E30C8F39B
:1017C0001B3251F01D3249F4689406C00E94FA0B96
:1017D000610F711D811D911D119110531A30B0F3CD
:1017E0003EF490958095709561957F4F8F4F9F4FF8
:1017F0001F910895592F482F372F262F660F771FD7
:10180000881F991F660F771F881F991F620F731F0C
:10181000841F951F660F771F881F991F08959111C8
:101820000C94180C803219F089508550C8F708952F
:101830009927882708952F923F924F925F926F9237
:101840007F928F929F92AF92BF92CF92DF92EF9250
:10185000FF920F931F93CF93DF93CDB7DEB7CA1BD1
:10186000DB0B0FB6F894DEBF0FBECDBF09942A88FC
:10187000398848885F846E847D848C849B84AA84A4
:10188000B984C884DF80EE80FD800C811B81AA8131
:10189000B981CE0FD11D0FB6F894DEBF0FBECDBFFC
:1018A000ED010895A1E21A2EAA1BBB1BFD010DC07C
:1018B000AA1FBB1FEE1FFF1FA217B307E407F50700
:1018C00020F0A21BB30BE40BF50B661F771F881FDC
:1018D000991F1A9469F760957095809590959B0172
:1018E000AC01BD01CF010895EE0FFF1F0590F491EB
:1018F000E02D09940F931F93CF93DF9382309105CE
:1019000010F482E090E0E0914403F091450330E070
:1019100020E0B0E0A0E0309799F42115310509F4FA
:101920004AC0281B390B24303105D8F58A819B81A8
:101930006115710589F1FB0193838283FE0111C05A
:10194000408151810281138148175907E0F04817FF
:10195000590799F4109761F012960C931297139609
:101960001C933296CF01DF91CF911F910F91089573
:101970000093440310934503F4CF2115310551F032
:101980004217530738F0A901DB019A01BD01DF01BD
:10199000F801C1CFEF01F9CF909345038093440341
:1019A000CDCFFE01E20FF31F8193919322503109B5
:1019B00039832883D7CF2091420330914303232BCF
:1019C00041F42091020130910301309343032093AD
:1019D000420320910001309101012115310541F4AC
:1019E0002DB73EB74091040150910501241B350BE2
:1019F000E0914203F0914303E217F307A0F42E1B9A
:101A00003F0B2817390778F0AC014E5F5F4F241762
:101A1000350748F04E0F5F1F509343034093420336
:101A2000819391939FCFF0E0E0E09CCFCF93DF9341
:101A30000097E9F0FC01329713821282A0914403CF
:101A4000B0914503ED0130E020E01097A1F4208132
:101A50003181820F931F2091420330914303281755
:101A6000390709F061C0F0934303E0934203DF912B
:101A7000CF910895EA01CE17DF07E8F54A815B812F
:101A80009E0141155105B1F7E901FB83EA834991B4
:101A90005991C40FD51FEC17FD0761F48081918126
:101AA0000296840F951FE90199838883828193812F
:101AB0009B838A83F0E0E0E012968D919C911397CE
:101AC0000097B9F52D913C911197CD010296820FA7
:101AD000931F20914203309143032817390739F6A9
:101AE000309751F51092450310924403B09343038D
:101AF000A0934203BCCFD383C28340815181840F22
:101B0000951FC817D90761F44E5F5F4F888199818F
:101B1000480F591F518340838A819B81938382831D
:101B20002115310509F0B0CFF0934503E09344034C
:101B30009ECFFD01DC01C0CF13821282D7CFB0E06F
:101B4000A0E0E5EAFDE00C941D0C8C01009751F437
:101B5000CB010E947A0C8C01C801CDB7DEB7E0E161
:101B60000C94390CFC01E60FF71F9C01225031093F
:101B7000E217F30708F49DC0D901CD91DC911197CC
:101B8000C617D70798F0C530D10530F3CE010497BA
:101B90008617970708F3C61BD70B2297C193D193DB
:101BA0006D937C93CF010E94160DD6CF5B01AC1ACA
:101BB000BD0A4C018C0E9D1EA0914403B0914503BB
:101BC000512C412CF12CE12C109731F580914203DE
:101BD000909143038815990509F05CC04616570695
:101BE00008F058C08091000190910101009741F4E4
:101BF0008DB79EB74091040150910501841B950B50
:101C0000E817F90708F055C0F0934303E093420347
:101C1000F90171836083A0CF8D919C9111971296E9
:101C20006C90129713967C901397A815B90559F5E7
:101C30006C0142E0C40ED11CCA14DB0420F1AC01DB
:101C40004A195B09DA011296159780F06282738255
:101C500051834083D9016D937C93E114F10471F0B9
:101C6000D7011396FC93EE93129776CF22968C0FA2
:101C70009D1FF90191838083F301EFCFF09345031A
:101C8000E093440369CF4816590608F42C017D01FE
:101C9000D3019ACFCB010E947A0C7C01009749F0C6
:101CA000AE01B8010E945C0EC8010E94160D8701AA
:101CB00053CF10E000E050CFFB01DC0102C00190E7
:101CC0000D9241505040D8F70895FB01DC018D91F1
:101CD000019080190110D9F3990B0895FB01DC01E3
:101CE00001900D920020E1F70895FB0151915523D9
:101CF000A9F0BF01DC014D9145174111E1F759F4FD
:101D0000CD010190002049F04D9140154111C9F3DA
:101D1000FB014111EFCF81E090E001970895F89425
:101D2000FFCF00004603800000000000D601F6004F
:101D30002301230294013201860100000000F00318
:101D4000C30324049903BC03A9039A030D0A003AB0
:101D5000007772697465000A57726974696E672E3C
:101D60002E2E0072656164000A52656164696E67B7
:101D70002E2E2E00535543434553533A205265614E
:101D8000642076616C756520004552524F523A20AE
:101D900052656164206661696C6564207769746866
:101DA000206572726F7220636F64653A200053552C
:101DB00043434553533A205772697465206F7065E9
:101DC000726174696F6E20636F6D706C65746564A9
:101DD0002E004552524F523A205772697465206660
:101DE00061696C65642077697468206572726F72CE
:081DF00020636F64653A2000D6
:107E0000112484B714BE81FFF0D085E080938100F7
:107E100082E08093C00088E18093C10086E0809377
:107E2000C20080E18093C4008EE0C9D0259A86E02C
:107E300020E33CEF91E0309385002093840096BBD3
:107E4000B09BFECF1D9AA8958150A9F7CC24DD24C4
:107E500088248394B5E0AB2EA1E19A2EF3E0BF2EE7
:107E6000A2D0813461F49FD0082FAFD0023811F036
:107E7000013811F484E001C083E08DD089C08234E0
:107E800011F484E103C0853419F485E0A6D080C0E4
:107E9000853579F488D0E82EFF2485D0082F10E0AE
:107EA000102F00270E291F29000F111F8ED06801E7
:107EB0006FC0863521F484E090D080E0DECF843638
:107EC00009F040C070D06FD0082F6DD080E0C81688
:107ED00080E7D80618F4F601B7BEE895C0E0D1E017
:107EE00062D089930C17E1F7F0E0CF16F0E7DF06D8
:107EF00018F0F601B7BEE89568D007B600FCFDCFD4
:107F0000A601A0E0B1E02C9130E011968C91119780
:107F100090E0982F8827822B932B1296FA010C0160
:107F200087BEE89511244E5F5F4FF1E0A038BF0790
:107F300051F7F601A7BEE89507B600FCFDCF97BE46
:107F4000E89526C08437B1F42ED02DD0F82E2BD052
:107F50003CD0F601EF2C8F010F5F1F4F84911BD097
:107F6000EA94F801C1F70894C11CD11CFA94CF0C13
:107F7000D11C0EC0853739F428D08EE10CD085E9AC
:107F80000AD08FE07ACF813511F488E018D01DD067
:107F900080E101D065CF982F8091C00085FFFCCF94
:107FA0009093C60008958091C00087FFFCCF809118
:107FB000C00084FD01C0A8958091C6000895E0E648
:107FC000F0E098E1908380830895EDDF803219F02E
:107FD00088E0F5DFFFCF84E1DECF1F93182FE3DFCA
:107FE0001150E9F7F2DF1F91089580E0E8DFEE27F6
:047FF000FF270994CA
:027FFE00040479
:00000001FF
