:100000000C9462000C948A000C948A000C948A0070
:100010000C948A000C948A000C948A000C948A0038
:100020000C948A000C948A000C948A000C948A0028
:100030000C948A000C948A000C948A000C948A0018
:100040000C94390C0C948A000C94A90C0C94830C1D
:100050000C948A000C948A000C948A000C948A00F8
:100060000C94DB0C0C948A00000000002400270094
:100070002A0000000000250028002B0000000000DE
:1000800023002600290004040404040404040202DA
:100090000202020203030303030301020408102007
:1000A0004080010204081020010204081020000012
:1000B0000008000201000003040700000000000027
:1000C0000000FA0D11241FBECFEFD8E0DEBFCDBF78
:1000D00025E0AAEAB3E001C01D92A434B207E1F71B
:1000E00013E0A0E0B1E0EAEFFCE202C005900D925F
:1000F000AA3AB107D9F710E0C2E6D0E004C02197D0
:10010000FE010E947214C136D107C9F70E944C0E3D
:100110000C947B160C9400008CBD9DBD089583301B
:1001200081F028F4813099F08230A9F00895873069
:10013000A9F08830C9F08430B1F4809180008F7DBF
:1001400003C0809180008F7780938000089584B5EC
:100150008F7784BD089584B58F7DFBCF8091B000EB
:100160008F778093B00008958091B0008F7DF9CF94
:10017000CF93DF93282F30E0F901E255FF4F8491B0
:10018000F901E656FF4FD491F901EA57FF4FC491A8
:10019000CC23A1F081110E948F00EC2FF0E0EE0F34
:1001A000FF1FE458FF4FA591B491EC91ED2381E03E
:1001B00090E009F480E0DF91CF91089580E090E035
:1001C000FACF1F93CF93DF93282F30E0F901E25548
:1001D000FF4F8491F901E656FF4FD491F901EA5798
:1001E000FF4FC491CC23A9F0162F81110E948F00DC
:1001F000EC2FF0E0EE0FFF1FEE58FF4FA591B491EA
:100200008FB7F894EC91111108C0D095DE23DC93E0
:100210008FBFDF91CF911F910895DE2BF8CFCF9341
:10022000DF9390E0FC01E656FF4F24918A579F4FE1
:10023000FC0184918823D1F090E0880F991FFC0184
:10024000E859FF4FA591B491FC01EE58FF4FC591BD
:10025000D49161110EC09FB7F8948C91E22FE09574
:100260008E238C932881E223E8839FBFDF91CF9177
:1002700008958FB7F894EC91E22BEC938FBFF6CFF3
:100280003FB7F8948091770490917804A091790415
:10029000B0917A0426B5A89B05C02F3F19F00196AE
:1002A000A11DB11D3FBFBA2FA92F982F8827BC01D0
:1002B000CD01620F711D811D911D42E0660F771FF8
:1002C000881F991F4A95D1F708958F929F92AF92F8
:1002D000BF92CF92DF92EF92FF926B017C010E945E
:1002E00040014B015C01C114D104E104F104B9F0F7
:1002F0000E944001681979098A099B09683E734088
:100300008105910580F321E0C21AD108E108F108C6
:1003100088EE880E83E0981EA11CB11CE4CFFF90EC
:10032000EF90DF90CF90BF90AF909F908F90089507
:100330002FB7F894609173047091740480917504E0
:10034000909176042FBF089508950895DB011496C7
:100350004D915C9115976D917C91DC01ED91FC9133
:100360000280F381E02D0994AF92BF92CF92DF9289
:10037000EF92FF920F931F93CF93DF936C017B015A
:100380008B01040F151FEB015E01AE18BF08C017EB
:10039000D10759F06991D601ED91FC910190F0815E
:1003A000E02DC6010995892B79F7C501DF91CF9121
:1003B0001F910F91FF90EF90DF90CF90BF90AF9083
:1003C0000895FC01538D448D252F30E0842F90E05B
:1003D000821B930B541710F0CF9608950197089540
:1003E000FC01918D828D981761F0A28DAE0FBF2F09
:1003F000B11D5D968C91928D9F5F9F73928F90E05F
:1004000008958FEF9FEF08950F931F930E94980117
:10041000609383047093840480938504909386048E
:100420008BE794E00E94F00197FF1DC00E949801A5
:1004300000918304109184042091850430918604F6
:10044000601B710B820B930B00917F041091800451
:10045000209181043091820460177107820793070D
:10046000F8F28FEF9FEF1F910F910895FC01918D8E
:10047000828D981731F0828DE80FF11D858D90E007
:1004800008958FEF9FEF0895FC01918D228D892FA4
:1004900090E0805C9F4F821B91098F73992708958C
:1004A0008BE794E00E94440221E0892B09F420E0CC
:1004B000822F089580E090E0892B29F00E9450025D
:1004C00081110C9400000895FC01A48DA80FB92F90
:1004D000B11DA35ABF4F2C91848D90E001968F736C
:1004E0009927848FA689B7892C93A089B1898C918B
:1004F000837080648C93938D848D981306C00288DA
:10050000F389E02D80818F7D80830895EF92FF92A3
:100510000F931F93CF93DF93EC0181E0888F9B8D26
:100520008C8D98131AC0E889F989808185FF15C0E0
:100530009FB7F894EE89FF896083E889F989808103
:100540008370806480839FBF81E090E0DF91CF91D2
:100550001F910F91FF90EF900895F62E0B8D10E0F4
:100560000F5F1F4F0F731127E02E8C8D8E110CC063
:100570000FB607FCFACFE889F989808185FFF5CFAE
:10058000CE010E946402F1CFEB8DEC0FFD2FF11D27
:10059000E35AFF4FF0829FB7F8940B8FEA89FB89EB
:1005A00080818062CFCFCF93DF93EC01888D882349
:1005B000B9F0AA89BB89E889F9898C9185FD03C0C6
:1005C000808186FD0DC00FB607FCF7CF8C9185FFAB
:1005D000F2CF808185FFEDCFCE010E946402E9CF8A
:1005E000DF91CF91089508952091EB03260F3327D3
:1005F000331F21323105ECF420913404FC0190E0EA
:1006000080E0243069F082E00895A091EB0321910D
:10061000AC0145535C4FA40FB52FB11D2C9301962F
:10062000861798F38091EB03680F6093EB0380E0EB
:10063000089581E008951092340481E0809333049A
:1006400010920E0461E082E10E94E10061E083E12A
:100650000E94E100E9EBF0E080818E7F8083808161
:100660008D7F808388E48093B80085E48093BC000C
:100670000895CF93DF9391E09093CA038823B9F054
:10068000C091B800D091BA008091BC008A7B809361
:10069000BC0060E082E10E94E10060E083E10E9432
:1006A000E1000E941B03D093BA00C093B800DF9111
:1006B000CF9108950895E091630480916204E81752
:1006C00030F4F0E0E655FC4F808190E008958FEF24
:1006D0009FEF089590916304809162042FEF3FEFA4
:1006E000981748F4E92FF0E0E655FC4F208130E000
:1006F0009F5F90936304C901089580916204909173
:100700006304891B990B0895CF92DF92EF92FF92B9
:100710000F931F93CF93DF937C01CB018A0120912C
:100720003A04222389F0EB016B01C40ED51ECC15CF
:10073000DD0569F06991D701ED91FC910190F0819F
:10074000E02DC7010995F3CF642F0E94F402C80180
:10075000DF91CF911F910F91FF90EF90DF90CF909D
:100760000895CF93DF931F92CDB7DEB769832091B1
:100770003A042223F9F020916004203258F021E05D
:1007800030E0FC013383228390E080E00F90DF9122
:10079000CF91089580916104E82FF0E0E55CFB4F74
:1007A000998190838F5F809361048093600481E0DE
:1007B00090E0ECCF61E0CE0101960E94F402F7CF09
:1007C000CF92DF92EF92FF920F931F93CF93DF931D
:1007D000FC01C48121E020933A04C0935B04109291
:1007E0006104109260048385682B88E195E00E9483
:1007F000B103D0916004D13208F092C00E94400150
:100800006B017C0180913404811165C082E080938A
:10081000340481E0809333048FEF8093320410928C
:100820003104D0933004ABE3B4E0E0E1F4E080E0E5
:10083000D81385C010920F0480910F04CC0FC82BE1
:10084000C0930F0480910E04813009F07CC0109297
:100850000E040E9440016B017C0180910F04809383
:10086000BB008091360490913704A0913804B09178
:100870003904892B8A2B8B2B99F00E94400100911F
:1008800036041091370420913804309139046C19E2
:100890007D098E099F090617170728073907E0F118
:1008A0008091BC0083FDD9CF85EC8093BC000E9471
:1008B00040016B017C0180913404823009F445C011
:1008C000809132048F3F61F180913204803241F196
:1008D0008091320425C08091360490913704A09114
:1008E0003804B0913904892B8A2B8B2B09F48ACFD9
:1008F0000E94400100913604109137042091380481
:10090000309139046C197D098E099F090617170764
:100910002807390708F076CF809135040E94390303
:10092000109261041092600410923A04DF91CF910A
:100930001F910F91FF90EF90DF90CF9008959D91C0
:1009400091938F5F75CF85EEB0CF809136049091F3
:100950003704A0913804B0913904892B8A2B8B2B52
:1009600009F4A9CF0E944001009136041091370488
:1009700020913804309139046C197D098E099F0942
:10098000061717072807390708F095CFC5CF90E05D
:1009900080E00895BC016E5F7F4FDC01ED91FC911A
:1009A0000190F081E02D40E0099591E0811190E007
:1009B000892F089508958EBD00000DB407FEFDCF68
:1009C0008EB50895DF92EF92FF920F931F93CF930E
:1009D000DF937C01062FD42E152F80E590E00E9436
:1009E0008C0060E0F70186850E94E10082E10E94B0
:1009F000DB04CD2DD12F0C0F1D2F111DC017D107DA
:100A000021F089910E94DB04F9CF61E0F70186852E
:100A1000DF91CF911F910F91FF90EF90DF900C9499
:100A2000E1001F93CF93DF93EC01162F80E590E058
:100A30000E948C0060E08E850E94E100812F80681A
:100A40000E94DB0480E00E94DB04182F61E08E85A9
:100A50000E94E100812FDF91CF911F9108950F93A4
:100A60001F93CF93DF93EC01062F142F80E590E0C6
:100A70000E948C0060E08E850E94E100802F0E9421
:100A8000DB04812F0E94DB0461E08E85DF91CF9132
:100A90001F910F910C94E100CF92DF92EF92FF92A1
:100AA0000F931F93CF93DF93EC016B01F42E890119
:100AB00040E062E00E942F0544E06AE0CE010E941F
:100AC0002F0540E864E1CE010E942F05A6016F2D9D
:100AD000CE010E94E20443E062E0CE010E942F05B5
:100AE0000E9498016B017C0129E5C20ED11CE11C1A
:100AF000F11C6AE0CE010E94110582FF1BC040E09C
:100B000062E0CE010E942F0564E4CE010E9411052F
:100B1000F801808362E4CE010E941105F80181830F
:100B200080E0DF91CF911F910F91FF90EF90DF90C8
:100B3000CF9008950E9498016C157D058E059F0544
:100B4000C0F283E0EECF2F923F924F925F926F926E
:100B50007F928F929F92AF92CF92DF92EF92FF920D
:100B60000F931F93CF93DF9300D0CDB7DEB74C0127
:100B70002B01D42E390180E0E114F10411F0F701CA
:100B800080813C2C329490EF3922380E40E062E0B4
:100B9000C4010E942F054FE768E0C4010E942F05A1
:100BA00040E864E1C4010E942F05A2016D2DC4013B
:100BB0000E94E204432D6AE1C4010E942F054CE02B
:100BC00062E0C4010E942F056AE1C4010E94110580
:100BD000482F40686AE1C4010E942F050E949801D5
:100BE0001B012C01F4E22F0E311C411C511C68E04A
:100BF000C4010E941105982F907309F0B7C080FFBF
:100C000015C083E00F900F90DF91CF911F910F914E
:100C1000FF90EF90DF90CF90AF909F908F907F905C
:100C20006F905F904F903F902F9008950E94980191
:100C30006215730584059505D0F2E3CF6114710444
:100C400009F469C00115110509F465C064E1C40126
:100C50000E941105382EF8018081831508F480C0A8
:100C600030823320E1F180E590E00E948C0060E06A
:100C7000F40186850E94E1003A9482E90E94DB0437
:100C8000CC20B1F08FEF90E09C0102C0220F331F07
:100C9000CA94E2F7690182E90E94DB049C2D9095D9
:100CA000F301208192238C21982B9083CC24C39430
:100CB00023014C0C511CC31440F482E90E94DB0454
:100CC000F20181932F01C394F6CF80E00E94DB04F0
:100CD000F201808361E0F40186850E94E10068E111
:100CE000C4010E9411058770E114F10411F0F701AD
:100CF000808323FC37C061147104B1F10115110523
:100D000099F1AA2089F1F8014081413031F4843011
:100D100029F58FEF77CF80E0ECCF4230F8F08111EA
:100D20001DC042509E012F5F3F4FB301C4010E947E
:100D30004C05811167CFF8019081690E711CF30198
:100D4000329720819981291309C0F1E06F1A710847
:100D5000F30120819A81291709F454CF87E052CFFB
:100D600084E050CF82E04ECF80E04CCF6CE0C401F5
:100D70000E941105282E837109F460CF81E042CFD3
:100D80008F929F92AF92CF92EF92FF920F931F9309
:100D9000CF93DF9300D000D01F92CDB7DEB74C01C8
:100DA00082E08D8340E064E2C4010E942F0540E0B0
:100DB00066E2C4010E942F0546E268E4C4010E9475
:100DC0002F0586E28B838D818230D8F16CE1C401DE
:100DD0000E941105482F4F776CE1C4010E942F0536
:100DE00087E08C83A12CC12CCE0104967C018E015E
:100DF0000B5F1F4F9E012F5F3F4F41E0BE016D5FB4
:100E00007F4FC4010E94A305982F811117C08D81C7
:100E10008230B9F48C81811114C081E00F900F9061
:100E20000F900F900F90DF91CF911F910F91FF9036
:100E3000EF90CF90AF909F908F90089581E0923087
:100E400069F380E0EBCF2F923F924F925F926F92C7
:100E50007F928F929F92AF92BF92CF92DF92EF924A
:100E6000FF920F931F93CF93DF93CDB7DEB72D97EC
:100E70000FB6F894DEBF0FBECDBF16E0413508F0C7
:100E80004AC1342E3B014C016CE10E941105482FF0
:100E90004F776CE1C4010E942F0583E989833320D9
:100EA00029F081E0F3019081953008F480E022245C
:100EB0002394B12C9B2D990F990F990FD32CD91AEC
:100EC000D7FCD12C32E0882319F098E89B8333E0DB
:100ED00021E09D2D977009F420E09D2D9595959525
:100EE0009595290FC9F094E0811193E0291708F432
:100EF000922FEB2DF0E03196E60DF71D232F419157
:100F0000A1E0B0E0AC0FBD1FA20FB11D4C932F5F4D
:100F1000422F431B491798F3882311F0F8E0DF0EA6
:100F20008FE18D150CF082C090E79A838B819C81B4
:100F300089279D8189279E8189278F839E01285F2C
:100F40003F4F47E0BE016F5F7F4FC4010E944C05D9
:100F5000182F8111E0C01A86E3E0EB87DC86CE0112
:100F600007962C0199E09D87CA844C2D4295407FBD
:100F70004C0D6AE1C4010E942F05A12CCE010A96F6
:100F80007C018E01055F1F4F92014D85BE016F5F91
:100F90007F4FC4010E94A305182F823009F065C05D
:100FA0006CE1C4010E94110585FDB5C08F7109F483
:100FB00080E2282F30E04D2DDD0C550B42175307F2
:100FC0000CF09DC0D82EE82FE595E595E595EF5FEF
:100FD000982F977081E009F480E0E80F81E090E0BD
:100FE0008C0F9D1F8E0F911DFC0121503109277020
:100FF000332781E090E002C0880F991F2A95E2F71D
:101000009C018081822B80838BCF85E9898333206B
:1010100031F081E0F3019081983008F04BCF80E00F
:1010200049CF87E9898326E0B22EF9CF9D2D9770AD
:101030009A878D2D8595859585958E5F282F22958C
:10104000207F290F2A8321E0911101C020E0280F81
:101050002D8744244394512C4C0E5D1E480E511C88
:10106000E9E0E81BEB87DC867FCF811154C080E28A
:10107000D82E9C8590320CF457CF8B81883809F09C
:1010800040C083E093E0EB2DF0E03196E60DF71DD4
:10109000980FA1E0B0E0AC0FBD1FA80FB11D2C91BF
:1010A00021938F5F8913F5CFBB84E3E0BE124DC05F
:1010B0008A8581114AC09E012D5F3F4F41E0B201F8
:1010C000C4010E944C05182F811125C09B81F2019B
:1010D000818198133CC09C818281981338C08081A3
:1010E00082FF12C02394F2E02F1609F48ECF83E022
:1010F000281609F496CF91E0291609F4CECE15E012
:101100000AC082E094E0BFCFF3018387822D880F6D
:10111000820D8F5F8083812F2D960FB6F894DEBFEE
:101120000FBECDBFDF91CF911F910F91FF90EF9038
:10113000DF90CF90BF90AF909F908F907F906F90F7
:101140005F904F903F902F90089511E0E4CF17E00B
:10115000E2CF42E050E06AE471E08BE794E00C9467
:10116000B401CF93DF93BC018BE794E00E94A6010A
:10117000EC010E94A9088C0F9D1FDF91CF9108956B
:10118000AF92BF92CF92DF92EF92FF920F931F9395
:10119000CF93DF93DC01CD90DC901197C114D10483
:1011A00039F01496CD91DC918C017601209761F491
:1011B000DF91CF911F910F91FF90EF90DF90CF9033
:1011C000BF90AF90089575015701BFEFAB1ABB0AEE
:1011D000F7018081082E000C990B0E942F14892B97
:1011E00091F72197CC0DDD1D8881082E000C990BFD
:1011F0000E942F14892B29F0CE15DF0510F02197BE
:10120000F3CFAE014F5F5F4F4E195F09D8011596BE
:101210005C934E931497CE14DF0420F4B701C601FB
:101220000E946216D801ED91FC91119714968D9150
:101230009C91E80FF91F1082BBCF0F931F93CF93A0
:10124000DF93EC0188819981009759F02A813B81D5
:101250002617370730F081E0DF91CF911F910F9172
:1012600008958B016F5F7F4F0E949D15009759F085
:10127000998388831B830A832C813D81232B59F713
:10128000FC011082E8CF80E0E7CFEF92FF920F934E
:101290001F93CF93DF936115710541F480E0DF91D7
:1012A000CF911F910F91FF90EF9008954115510537
:1012B000B1F07B01EC010C811D81040F151FB801F9
:1012C0000E941D09882351F3288139818C819D81D9
:1012D000B701820F931F0E9474161D830C8381E057
:1012E000DECFCF93DF93EC0188819981009711F0D5
:1012F0000E941415198218821D821C821B821A8278
:10130000DF91CF910895EF92FF920F931F93CF93A8
:10131000DF93EC017B018A01BA010E941D09811152
:101320000BC0CE010E947109CE01DF91CF911F91B8
:101330000F91FF90EF9008951D830C83B701888172
:1013400099810E947416F0CFFB0101900020E9F70B
:101350003197AF01461B570B0C948309CF93DF9352
:10136000EC01FB018617970749F0608171816115D7
:10137000710541F0448155810E948309CE01DF91BE
:10138000CF9108950E947109F9CFFC01118210825A
:1013900013821282158214820C94AE09FC01118210
:1013A00010821382128215821482FB0101900020A8
:1013B000E9F73197AF01461B570B0C948309FC01E9
:1013C00080819181009711F00C9414150895CF92AB
:1013D000DF92EF92FF920F931F93CF93DF9300D092
:1013E00000D000D0CDB7DEB78C010E94C509C8017E
:1013F0000E94C008F80124813581369527958AE03E
:1014000090E06C01C21AD30AF12CE12CEC14FD041B
:101410001CF56DE471E0CE0101960E94CE09F80141
:101420004481558160817181CE0101960E944509F8
:10143000811104C0CE0101960E947109BE016F5F47
:101440007F4FC8010E94AE09CE0101960E94DF09BC
:10145000FFEFEF1AFF0ADACFF801E480F580F4E13C
:10146000EF16F1040CF5B801CE0101960E94C509F2
:1014700041E050E06DE471E0CE0101960E94450923
:10148000811104C0CE0101960E947109BE016F5FF7
:101490007F4FC8010E94AE09CE0101960E94DF096C
:1014A0008FEFE81AF80ADBCFC80126960FB6F8943A
:1014B000DEBF0FBECDBFDF91CF911F910F91FF9087
:1014C000EF90DF90CF9008950F931F93CF938C01EF
:1014D000C62F0E94E0036C2F6460C8010E94E003E5
:1014E0006C2F6B7FC8010E94E00383EC90E00197B2
:1014F000F1F7CF911F910F9108950F931F93CF9301
:10150000DF938C01D62FC42F607F642B0E94640A66
:1015100080E1D89FB00111246C2BC801DF91CF91DD
:101520001F910F910C94640ACF93DF93CDB7DEB770
:1015300028970FB6F894DEBF0FBECDBF98E0E8E065
:10154000F1E0DE01119601900D929A95E1F79091EC
:101550002C05981710F48FEF890F90E0880F991FD2
:1015600021E030E02C0F3D1F820F931FFC016081B2
:10157000606840E084E295E028960FB6F894DEBFFC
:101580000FBECDBFDF91CF910C947D0AAF92BF9279
:10159000CF92DF92EF92FF920F931F93CF93DF933F
:1015A000CDB7DEB72C970FB6F894DEBF0FBECDBF18
:1015B0005C016B017A01890141E050E06BE471E06C
:1015C0008BE794E00E94B4010E94A908B501CE0106
:1015D00001960E94C509BE016F5F7F4FCE0107963D
:1015E0000E94E709CE0107960E94B108CE01079636
:1015F0000E94DF09CE0101960E94DF09B601CE01EB
:1016000001960E94C509BE016F5F7F4FCE0107960C
:101610000E94E709CE0107960E94B108CE01079605
:101620000E94DF09CE0101960E94DF09B701CE01B9
:1016300001960E94C509BE016F5F7F4FCE010796DC
:101640000E94E709CE0107960E94B108CE010796D5
:101650000E94DF09CE0101960E94DF09B801CE0188
:1016600001960E94C509BE016F5F7F4FCE010796AC
:101670000E94E709CE0107960E94B108CE010796A5
:101680000E94DF09CE0101960E94DF0940E061E07F
:1016900084E295E00E947D0A8BE39FE10197F1F7D8
:1016A00080E00E94940AB501CE0101960E94C5090E
:1016B000BE016F5F7F4FCE0107960E94E709BE0112
:1016C000695F7F4F84E295E00E94A601CE010796F4
:1016D0000E94DF09CE0101960E94DF0981E00E948D
:1016E000940AB601CE0101960E94C509BE016F5F42
:1016F0007F4FCE0107960E94E709BE01695F7F4FC9
:1017000084E295E00E94A601CE0107960E94DF09BF
:10171000CE0101960E94DF0982E00E94940AB7017F
:10172000CE0101960E94C509BE016F5F7F4FCE01B9
:1017300007960E94E709BE01695F7F4F84E295E04A
:101740000E94A601CE0107960E94DF09CE010196F4
:101750000E94DF0983E00E94940AB801CE0101963D
:101760000E94C509BE016F5F7F4FCE0107960E94A0
:10177000E709BE01695F7F4F84E295E00E94A60100
:10178000CE0107960E94DF09CE0101960E94DF0973
:101790002C960FB6F894DEBF0FBECDBFDF91CF9170
:1017A0001F910F91FF90EF90DF90CF90BF90AF907F
:1017B000089541E00E947D0A81E090E00895CF9372
:1017C000DF93EC016CE471E00E94CE098091650426
:1017D000909166048230910559F08330910571F043
:1017E0006FE471E0019731F0CE01DF91CF91089560
:1017F00061E671E0CE010E94A409F6CF63E771E0D3
:10180000F9CF85ED8093BC00809136049091370428
:10181000A0913804B09139040796A11DB11D23E0B1
:10182000B695A795979587952A95D1F72091BC00F5
:1018300024FD03C010923404089540913604509161
:1018400037046091380470913904452B462B472B9F
:1018500069F30097A105B10541F02AE22A95F1F755
:1018600000C00197A109B109E1CF809135040C9422
:1018700039031F920F920FB60F9211242F933F93AB
:101880008F939F93AF93BF9380917304909174044F
:10189000A0917504B09176043091720423E0230F77
:1018A0002D3758F50196A11DB11D20937204809328
:1018B000730490937404A0937504B093760480919C
:1018C000770490917804A0917904B0917A040196FC
:1018D000A11DB11D8093770490937804A09379049F
:1018E000B0937A04BF91AF919F918F913F912F91C7
:1018F0000F900FBE0F901F90189526E8230F0296A9
:10190000A11DB11DD2CF1F920F920FB60F921124BD
:101910002F933F934F935F936F937F938F939F93F7
:10192000AF93BF93EF93FF938BE794E00E94640221
:10193000FF91EF91BF91AF919F918F917F916F91A7
:101940005F914F913F912F910F900FBE0F901F907D
:1019500018951F920F920FB60F9211242F938F9309
:101960009F93EF93FF93E0918B04F0918C0480811F
:10197000E0919104F091920482FD1BC090818091CE
:1019800094048F5F8F7320919504821741F0E0914A
:101990009404F0E0E558FB4F958F80939404FF91F9
:1019A000EF919F918F912F910F900FBE0F901F90ED
:1019B00018958081F4CF1F920F920FB60F921124C9
:1019C0002F933F934F935F936F937F938F939F9347
:1019D000AF93BF93EF93FF938091B900887F8036D8
:1019E00009F44AC0F0F5883209F4A7C018F580312F
:1019F00009F49BC0B8F4882309F4F9C0883009F4CD
:101A000094C0FF91EF91BF91AF919F918F917F9182
:101A10006F915F914F913F912F910F900FBE0F905B
:101A20001F901895883109F488C0803251F780934F
:101A3000320414C0803409F49DC040F48033B9F3FB
:101A40008833F9F68093320485ECB0C0803509F410
:101A500085C0883509F496C0883499F60E94010C37
:101A6000D0CF883909F48CC038F5883729F050F484
:101A7000883611F0803729F683E080933404109281
:101A80000D0457C0883809F47BC0803919F08038BC
:101A900009F0B7CF80910D04803208F071C0E09159
:101AA0000D0481E08E0F80930D048091BB00F0E067
:101AB000E351FC4F80833DC0803B39F0E0F4803A35
:101AC00009F479C0883A09F09CCF84E0809334040B
:101AD0001092EC031092EB03E0915E04F0915F042E
:101AE00009958091EB0381110FC081E08093EB0396
:101AF0001092CB0309C0803C09F4A6CF883C09F4BE
:101B0000A3CF883B09F07DCFE091EC0381E08E0FFD
:101B10008093EC03F0E0E553FC4F80818093BB00A1
:101B20009091EC038091EB0329C080910F04809386
:101B3000BB0085EC8093BC0064CF90913104809110
:101B40003004981758F5E091310481E08E0F8093AE
:101B50003104F0E0E05FFB4F8081E9CFE091310498
:101B600081E08E0F809331048091BB00F0E0E05F54
:101B7000FB4F808390913104809130049817C8F214
:101B800085E8D8CFE091310481E08E0F8093310455
:101B90008091BB00F0E0E05FFB4F808380913304D5
:101BA00081115CCF81E080930E0484EA8093BC00B5
:101BB0001092340426CF85EC8093BC00109234043C
:101BC00080910D04803230F4E0910D04F0E0E35197
:101BD000FC4F108260910D0470E0E0915C04F09184
:101BE0005D048DEE93E0099510920D040ACF1092DA
:101BF000320434CFEBE7F4E01382128288EE93E0F4
:101C0000A0E0B0E084839583A683B78324E131E02C
:101C10003183208325EC30E03587248724EC30E0C5
:101C20003787268720EC30E0318B208B21EC30E0A9
:101C3000338B228B22EC30E0358B248B26EC30E08A
:101C4000378B268B118E128E138E148EE8E1F5E001
:101C50001382128284839583A683B78386E291E000
:101C600091838083E0E3F5E084E491E091838083D5
:101C70008AE0868789E08787E4E2F5E013821282B2
:101C800088E391E09183808388E3848388E281877D
:101C900084E0828713860895CF93DF93CDB7DEB7B4
:101CA00068970FB6F894DEBF0FBECDBF789484B5A9
:101CB000826084BD84B5816084BD85B5826085BD48
:101CC00085B5816085BD80916E00816080936E00D6
:101CD00010928100809181008260809381008091C8
:101CE0008100816080938100809180008160809379
:101CF00080008091B10084608093B1008091B00039
:101D000081608093B00080917A00846080937A0033
:101D100080917A00826080937A0080917A0081605D
:101D200080937A0080917A00806880937A00109284
:101D3000C100109263041092620410926104109228
:101D400060040E941B0384EA91E090935F048093F7
:101D50005E0485EA91E090935D0480935C041092A8
:101D6000290580912E05823018F098E0909329057E
:101D700080932C0562E370E080E090E00E946501B2
:101D800060912F0584E295E00E94E00368EE73E025
:101D900080E090E00E94650160E384E295E00E94AB
:101DA000640A0BE416E4C8010197F1F760E384E2EA
:101DB00095E00E94640AC8010197F1F760E384E2AC
:101DC00095E00E94640A83E592E00197F1F760E2F2
:101DD00084E295E00E94640A60912905606240E017
:101DE00084E295E00E947D0A84E080932A0540E029
:101DF0006CE084E295E00E947D0A40E061E084E2CC
:101E000095E00E947D0A0BE31FE1C8010197F1F7FD
:101E100072E0F72EF0922B0540E066E084E295E058
:101E20000E947D0A40E062E084E295E00E947D0A23
:101E3000C8010197F1F788E080932F0560E084E204
:101E400095E00E94E003E0918B04F0918C04F08215
:101E5000E0918704F09188041082E0918904F09168
:101E60008A048FEC808310929304E0918F04F091A8
:101E7000900486E08083E0918D04F0918E0480814F
:101E800080618083E0918D04F0918E048081886070
:101E90008083E0918D04F0918E048081806880833E
:101EA000E0918D04F0918E0480818F7D808360E0CD
:101EB00084E00E940F0160E083E00E940F0160E077
:101EC00082E00E940F0161E085E00E940F0161E065
:101ED00086E00E940F0160E085E00E94E10060E082
:101EE00086E00E94E1001FB7F8948091640481119C
:101EF00027C0E0E9F0E08491E4EAF0E09491E82F73
:101F0000F0E0EE0FFF1FE859FF4FA591B491EC915F
:101F1000E92321F461E08AE00E94E10061E08AE0C7
:101F20000E940F018CB580618CBD8CB580648CBD26
:101F300061E08DE00E940F0161E08BE00E940F01E3
:101F4000809164048F5F809364041FBF61E080917F
:101F50003E050E940F0161E080913E050E94E10074
:101F600080913F058F3F09F49DC060E00E940F0102
:101F700080913F050E94B800892B09F093C061E071
:101F800080913F050E940F0160E080913F050E9413
:101F9000E10083E090E00197F1F761E080913F0577
:101FA0000E94E10062E370E080E090E00E94650141
:101FB00040E064E280E395E00E942F0540E066E2A5
:101FC00080E395E00E942F0546E268E480E395E017
:101FD0000E942F0540E864E580E395E00E942F050C
:101FE00049EA66E580E395E00E942F0543E068E555
:101FF00080E395E00E942F0548EE6AE580E395E0D6
:102000000E942F0540E46AE280E395E00E942F05DC
:102010004DE362E280E395E00E942F0568E280E3F1
:1020200095E00E941105982F9370933039F0482F56
:10203000436068E280E395E00E942F056AE070E06B
:1020400080E090E00E94650144244394512C58E5BF
:10205000852E5BE1952EA12CB12C85E0282E312C0C
:1020600094E0692E712C23E0C22ED12C32E0E32EB5
:10207000F12CE0910001F09101013197E830F10578
:1020800008F02AC1E65BFF4E0091700410917104C4
:102090000C9472146910D610B311E811E0120F13EA
:1020A000C41310144FE062E080E395E00E942F0516
:1020B00013E062E370E080E090E00E94650162E07E
:1020C00080E395E00E94110584FF72CF115089F7DB
:1020D0006FCF0130110509F442C065E871E0CE010F
:1020E00001960E94CE0965E971E0CE0107960E9433
:1020F000CE096AEA71E0CE010D960E94CE096CEB22
:1021000071E0CE0143960E94CE099E012F5F3F4FA2
:10211000AE01495F5F4FBE01635F7F4FCE014396C3
:102120000E94C60ACE0143960E94DF09CE010D9699
:102130000E94DF09CE0107960E94DF09CE010196B9
:102140000E94DF09109266041092650480910001DC
:10215000909101019093710480937004BDC084E05C
:102160000E94B800019769F4109366040093650417
:10217000F0920101E09200016AEF70E080E090E0EF
:10218000EFC083E00E94B800019729F4F092660442
:10219000E0926504EDCF82E00E94B800019709F05B
:1021A0009BC0D0926604C0926504E2CF0230110554
:1021B000A1F160ED71E0CE0101960E94CE09CE0141
:1021C00007960E94DF0B65EE71E0CE010D960E942E
:1021D000CE0962EF71E0CE0143960E94CE099E01C6
:1021E0002F5F3F4FAE01495F5F4FBE01635F7F4F7F
:1021F000CE0143960E94C60ACE0143960E94DF0993
:10220000CE010D960E94DF09CE0107960E94DF09DC
:10221000CE0101960E94DF0999CF82E00E94B800AA
:10222000019729F45092010140920001A5CF8BE75C
:1022300094E00E944402181619060CF04DC06CE49C
:1022400071E0CE0101960E94CE090E94040297FD22
:102250000FC08A30910561F08F83188641E050E00D
:10226000BE01695F7F4FCE0101960E944509EDCF07
:10227000CE0101960E94C00809811A81011511053D
:1022800071F0F80181918F01882349F0082E000C2C
:10229000990B0E945A16F80131978083F2CFCE0134
:1022A00001960E94B1088D819E81892B49F066E0DC
:1022B00072E089819A810E946B168C01892B11F042
:1022C00002E010E0CE0101960E94DF09012B89F4A3
:1022D000D0920101C092000180E090E0892B09F4C6
:1022E000C8CE0E945002882309F4B7CE0E94000095
:1022F000B4CE60ED71E0CE0143960E94CE09CE01CE
:102300000D960E94DF0B69E072E0CE0107960E94F5
:10231000CE096AE172E0CE0101960E94CE099E01CB
:102320002D5E3F4FAE01435F5F4FBE01695F7F4F40
:10233000CE0101960E94C60ACE0101960E94DF09D5
:10234000CE0107960E94DF09CE010D960E94DF099B
:10235000CE0143960E94DF0964EF71E080E090E0D7
:102360000E946501B9CF03301105A9F065E472E060
:10237000CE0101960E94CE096BE272E0CE01079673
:102380000E94CE0960E472E0CE010D960E94CE0953
:102390006FE472E020CF84E00E94B800019709F05A
:1023A0009BCF8092670490926804A0926904B092D7
:1023B0006A0470920101609200016AEF70E080E0AF
:1023C00090E00E94650161E086E00E94E10084CF18
:1023D0000430110509F497C061E086E00E94E10035
:1023E0000E94980160936C0470936D0480936E0456
:1023F00090936F04709271046092700460E672E0D2
:10240000CE0101960E94CE096BE672E0CE010796DE
:102410000E94CE096CE772E0CE010D960E94CE09B3
:1024200061E972E0CE0143960E94CE099E012F5FC2
:102430003F4FAE01495F5F4FBE01635F7F4FCE01EB
:1024400043960E94C60ACE0143960E94DF09CE0140
:102450000D960E94DF09CE0107960E94DF09CE018A
:1024600001960E94DF0980916B04811123C00E94B4
:10247000980100916C0410916D0420916E043091CC
:102480006F04601B710B820B930B0091670410911A
:1024900068042091690430916A046017710782070B
:1024A000930740F060E086E00E94E1003092010175
:1024B0002092000184E00E94B800019709F00CCF3F
:1024C0008091670490916804A0916904B0916A04B6
:1024D00040916C0450916D0460916E0470916F0492
:1024E000841B950BA60BB70B80936704909368042D
:1024F000A0936904B0936A0410927104109270045E
:1025000010926B0439CE80916B048111D3CF82E09D
:102510000E94B800019709F0AACF0E94980100918B
:102520006C0410916D0420916E0430916F04601B57
:10253000710B820B930B60936C0470936D0480930A
:102540006E0490936F0481E080936B0460E086E0FA
:102550000E94E10065E472E0CE0101960E94CE097E
:1025600069EF72E0CE0107960E94CE096DE073E03C
:10257000CE010D960E94CE0962EA72E0CE0143962A
:102580000E94CE099E012F5F3F4FAE01495F5F4F12
:10259000BE01635F7F4FCE0143960E94C60ACE0103
:1025A00043960E94DF09CE010D960E94DF09CE01FD
:1025B00007960E94DF09CE0101960E94DF09DCCD5B
:1025C0000530110579F060ED72E0CE0101960E94B0
:1025D000CE0966EB72E0CE0107960E94CE096BEC45
:1025E00072E0D2CE84E00E94B800019709F074CE68
:1025F0008092670490926804A0926904B0926A0481
:1026000086E090E090930101809300016AEF70E012
:1026100080E090E00E94650160E085E0D6CE063063
:10262000110509F476C060E672E0CE0101960E94C1
:10263000CE096BE672E0CE0107960E94CE096CE7E8
:1026400072E0CE010D960E94CE096BED72E0CE01D4
:1026500043960E94CE099E012F5F3F4FAE01495F16
:102660005F4FBE01635F7F4FCE0143960E94C60A53
:10267000CE0143960E94DF09CE010D960E94DF092C
:10268000CE0107960E94DF09CE0101960E94DF0964
:1026900061E085E00E94E1000E94980160936C0473
:1026A00070936D0480936E0490936F048091000189
:1026B00090910101909371048093700480916B0458
:1026C0008111F8CE0E94980100916C0410916D0464
:1026D00020916E0430916F04601B710B820B930B81
:1026E00000916704109168042091690430916A0494
:1026F000601771078207930708F4DCCE60E085E07D
:102700000E94E100E7E0F0E0F0930101E0930001B6
:10271000D1CE80916B048111CDCE82E00E94B800B1
:10272000019781F60E94980100916C0410916D044C
:1027300020916E0430916F04601B710B820B930B20
:1027400060936C0470936D0480936E0490936F0497
:1027500081E080936B0460E085E00E94E1006DEE13
:1027600072E0CE0101960E94CE0968EF72E0CE01C0
:1027700007960E94CE0969E073E0CE010D960E9493
:10278000CE0968E173E0FACE0730110509F4A4CD53
:1027900069E273E0CE0143960E94CE0967E373E0DD
:1027A000CE010D960E94CE0961E473E0CE0107963A
:1027B0000E94CE0963E573E0CE0101960E94CE0926
:1027C0009E012D5E3F4FAE01435F5F4FBE01695FCB
:1027D0007F4FCE0101960E94C60ACE0101960E944B
:1027E000DF09CE0107960E94DF09CE010D960E94F7
:1027F000DF09CE0143960E94DF098091000190918C
:102800000101909371048093700460E777E180E0A8
:1028100090E00E94650150920101409200015CCD60
:1028200008301105A9F06CE471E0CE0101960E9418
:10283000CE0963E673E0CE0107960E94CE0961E8F7
:1028400073E0CE010D960E94CE0969E973E0C3CC16
:1028500084E00E94B800019709F03ECDE3CC9111CD
:102860000C943814803219F089508550C8F70895B7
:102870009927882708952F923F924F925F926F92E7
:102880007F928F929F92AF92BF92CF92DF92EF9200
:10289000FF920F931F93CF93DF93CDB7DEB7CA1B81
:1028A000DB0B0FB6F894DEBF0FBECDBF09942A88AC
:1028B000398848885F846E847D848C849B84AA8454
:1028C000B984C884DF80EE80FD800C811B81AA81E1
:1028D000B981CE0FD11D0FB6F894DEBF0FBECDBFAC
:1028E000ED010895EE0FFF1F0590F491E02D09947E
:1028F0000F931F93CF93DF938230910510F482E002
:1029000090E0E0914205F091430530E020E0B0E036
:10291000A0E0309799F42115310509F44AC0281B2D
:10292000390B24303105D8F58A819B8161157105F9
:1029300089F1FB0193838283FE0111C040815181A3
:102940000281138148175907E0F04817590799F495
:10295000109761F012960C93129713961C9332966F
:10296000CF01DF91CF911F910F9108950093420500
:1029700010934305F4CF2115310551F04217530749
:1029800038F0A901DB019A01BD01DF01F801C1CFD7
:10299000EF01F9CF9093430580934205CDCFFE011F
:1029A000E20FF31F819391932250310939832883D9
:1029B000D7CF2091400530914105232B41F4209140
:1029C0000401309105013093410520934005209189
:1029D0000201309103012115310541F42DB73EB7B5
:1029E0004091060150910701241B350BE0914005F1
:1029F000F0914105E217F307A0F42E1B3F0B2817B7
:102A0000390778F0AC014E5F5F4F2417350748F067
:102A10004E0F5F1F50934105409340058193919362
:102A20009FCFF0E0E0E09CCFCF93DF930097E9F0F9
:102A3000FC01329713821282A0914205B0914305A6
:102A4000ED0130E020E01097A1F420813181820F68
:102A5000931F20914005309141052817390709F04F
:102A600061C0F0934105E0934005DF91CF91089557
:102A7000EA01CE17DF07E8F54A815B819E01411527
:102A80005105B1F7E901FB83EA8349915991C40FDC
:102A9000D51FEC17FD0761F4808191810296840FA8
:102AA000951FE90199838883828193819B838A831F
:102AB000F0E0E0E012968D919C9113970097B9F5A4
:102AC0002D913C911197CD010296820F931F209179
:102AD0004005309141052817390739F6309751F5EF
:102AE0001092430510924205B0934105A093400512
:102AF000BCCFD383C28340815181840F951FC817F7
:102B0000D90761F44E5F5F4F88819981480F591F43
:102B1000518340838A819B81938382832115310570
:102B200009F0B0CFF0934305E09342059ECFFD013D
:102B3000DC01C0CF13821282D7CFB0E0A0E0E3EA7D
:102B4000F5E10C943D148C01009751F4CB010E94E7
:102B500078148C01C801CDB7DEB7E0E10C945914AC
:102B6000FC01E60FF71F9C0122503109E217F30721
:102B700008F49DC0D901CD91DC911197C617D707F4
:102B800098F0C530D10530F3CE010497861797072A
:102B900008F3C61BD70B2297C193D1936D937C93F7
:102BA000CF010E941415D6CF5B01AC1ABD0A4C01AF
:102BB0008C0E9D1EA0914205B0914305512C412CD5
:102BC000F12CE12C109731F5809140059091410551
:102BD0008815990509F05CC04616570608F058C0DC
:102BE0008091020190910301009741F48DB79EB747
:102BF0004091060150910701841B950BE817F907D6
:102C000008F055C0F0934105E0934005F901718348
:102C10006083A0CF8D919C91119712966C90129722
:102C200013967C901397A815B90559F56C0142E0ED
:102C3000C40ED11CCA14DB0420F1AC014A195B0993
:102C4000DA011296159780F0628273825183408375
:102C5000D9016D937C93E114F10471F0D7011396BF
:102C6000FC93EE93129776CF22968C0F9D1FF9015D
:102C700091838083F301EFCFF0934305E093420506
:102C800069CF4816590608F42C017D01D3019ACF6B
:102C9000CB010E9478147C01009749F0AE01B80185
:102CA0000E946216C8010E941415870153CF10E0DC
:102CB00000E050CF9111089581568A5108F4805256
:102CC00085580895FB01DC0102C001900D9241502E
:102CD0005040D8F70895FB01DC018D9101908019D7
:102CE0000110D9F3990B0895FB01DC0101900D92BD
:0A2CF0000020E1F70895F894FFCFEB
:102CFA000100000044058000000040001400540058
:102D0A00000000008602B401E101D3024402F0018E
:102D1A00360200000000B1038403C7045A037D038E
:102D2A006A035B0300000000D90BB401C704F30275
:102D3A00000000002307C006CA040D0A0020004D47
:102D4A006F6E746F2033242078203230206C7473B5
:102D5A00004D6F6E746F2032242078203135206C3C
:102D6A007473004D6F6E746F2031242078203130D7
:102D7A00206C7473005B524F4A4F5D2035206C748F
:102D8A0073203124005B414D4152494C4C4F5D2028
:102D9A003130206C7473203224005B56455244450E
:102DAA005D203135206C74732033240053656C65C3
:102DBA006363696F6E6520626F74656C6C6F6E0019
:102DCA005B524F4A4F5D20766F6C766572206120A8
:102DDA004D454E5500656E20656C204C4543544F59
:102DEA00520050726573656E746520737520544184
:102DFA00524A4554410041410050726573656E74F0
:102E0A0065205441524A455441005461726A6574BE
:102E1A006120696E76616C696461005B5645524453
:102E2A00455D20696E696369617220706172610033
:102E3A007061726120656C204C415641444F0043D9
:102E4A006F6C6F71756520626F74656C6C6F6E0064
:102E5A00454D455247454E434941005B524F4A4F03
:102E6A005D2050617261646120646500457370651C
:102E7A00726520706F72206661766F72202E2E2E18
:102E8A00004C4156414E444F20626F74656C6C6F22
:102E9A006E004C415641444F20646574656E696406
:102EAA006F20706F72005B56455244455D20706119
:102EBA00726120696E696369617200706172612072
:102ECA00656C204C4C454E41444F004C4C454E419C
:102EDA004E444F20626F74656C6C6F6E00656C2097
:102EEA004C4C454E414E4F005B56455244455D2081
:102EFA007265616E7564617200706F7220656C2014
:102F0A007573756172696F004C4C454E41444F2090
:102F1A00646574656E69646F005675656C766120C8
:102F2A0070726F6E746F00736572766963696F731E
:102F3A0000506F722075736172206E7565737472BA
:102F4A006F73002121212047726163696173202117
:102F5A002121007061726120766F6C766572206142
:102F6A006C206D656E75207072696E636970616C34
:102F7A000050726573696F6E6520656C20626F74AC
:102F8A006F6E2056455244450050524F4345534FA9
:0A2F9A0020444554454E49444F00C1
:00000001FF
