:020000040000FA
:100000000C9462000C948A000C948A000C948A0070
:100010000C948A000C948A000C948A000C948A0038
:100020000C948A000C948A000C948A000C948A0028
:100030000C948A000C948A000C948A000C948A0018
:100040000C94090C0C948A000C94790C0C94530CAD
:100050000C948A000C948A000C948A000C948A00F8
:100060000C94AB0C0C948A000000000024002700C4
:100070002A0000000000250028002B0000000000DE
:1000800023002600290004040404040404040202DA
:100090000202020203030303030301020408102007
:1000A0004080010204081020010204081020000012
:1000B0000008000201000003040700000000000027
:1000C0000000CA0D11241FBECFEFD8E0DEBFCDBFA8
:1000D00025E0AEEFB3E001C01D92A439B207E1F70D
:1000E00013E0A0E0B1E0E0EDFBE202C005900D926C
:1000F000AE3FB107D9F710E0C2E6D0E004C02197C7
:10010000FE010E94EE13C136D107C9F70E941C0EF2
:100110000C94E6150C9400008CBD9DBD08958330B1
:1001200081F028F4813099F08230A9F00895873069
:10013000A9F08830C9F08430B1F4809180008F7DBF
:1001400003C0809180008F7780938000089584B5EC
:100150008F7784BD089584B58F7DFBCF8091B000EB
:100160008F778093B00008958091B0008F7DF9CF94
:10017000CF93DF93282F30E0F901E255FF4F8491B0
:10018000F901E656FF4FD491F901EA57FF4FC491A8
:10019000CC23A1F081110E948F00EC2FF0E0EE0F34
:1001A000FF1FE458FF4FA591B491EC91ED2381E03E
:1001B00090E009F480E0DF91CF91089580E090E035
:1001C000FACF1F93CF93DF93282F30E0F901E25548
:1001D000FF4F8491F901E656FF4FD491F901EA5798
:1001E000FF4FC491CC23A9F0162F81110E948F00DC
:1001F000EC2FF0E0EE0FFF1FEE58FF4FA591B491EA
:100200008FB7F894EC91111108C0D095DE23DC93E0
:100210008FBFDF91CF911F910895DE2BF8CFCF9341
:10022000DF9390E0FC01E656FF4F24918A579F4FE1
:10023000FC0184918823D1F090E0880F991FFC0184
:10024000E859FF4FA591B491FC01EE58FF4FC591BD
:10025000D49161110EC09FB7F8948C91E22FE09574
:100260008E238C932881E223E8839FBFDF91CF9177
:1002700008958FB7F894EC91E22BEC938FBFF6CFF3
:100280003FB7F8948091C7049091C804A091C90425
:10029000B091CA0426B5A89B05C02F3F19F001965E
:1002A000A11DB11D3FBFBA2FA92F982F8827BC01D0
:1002B000CD01620F711D811D911D42E0660F771FF8
:1002C000881F991F4A95D1F708958F929F92AF92F8
:1002D000BF92CF92DF92EF92FF926B017C010E945E
:1002E00040014B015C01C114D104E104F104B9F0F7
:1002F0000E944001681979098A099B09683E734088
:100300008105910580F321E0C21AD108E108F108C6
:1003100088EE880E83E0981EA11CB11CE4CFFF90EC
:10032000EF90DF90CF90BF90AF909F908F90089507
:100330002FB7F8946091C3047091C4048091C504F0
:100340009091C6042FBF089508950895DB01149677
:100350004D915C9115976D917C91DC01ED91FC9133
:100360000280F381E02D0994AF92BF92CF92DF9289
:10037000EF92FF920F931F93CF93DF936C017B015A
:100380008B01040F151FEB015E01AE18BF08C017EB
:10039000D10759F06991D601ED91FC910190F0815E
:1003A000E02DC6010995892B79F7C501DF91CF9121
:1003B0001F910F91FF90EF90DF90CF90BF90AF9083
:1003C0000895FC01538D448D252F30E0842F90E05B
:1003D000821B930B541710F0CF9608950197089540
:1003E000FC01918D828D981761F0A28DAE0FBF2F09
:1003F000B11D5D968C91928D9F5F9F73928F90E05F
:1004000008958FEF9FEF0895FC01918D828D9817CD
:1004100031F0828DE80FF11D858D90E008958FEF0A
:100420009FEF0895FC01918D228D892F90E0805CD3
:100430009F4F821B91098F73992708958BEC94E04D
:100440000E94120221E0892B09F420E0822F0895F6
:1004500080E090E0892B29F00E941E0281110C940B
:1004600000000895FC01A48DA80FB92FB11DA35A57
:10047000BF4F2C91848D90E001968F739927848FC4
:10048000A689B7892C93A089B1898C9183708064E7
:100490008C93938D848D981306C00288F389E02D88
:1004A00080818F7D80830895EF92FF920F931F9339
:1004B000CF93DF93EC0181E0888F9B8D8C8D981317
:1004C0001AC0E889F989808185FF15C09FB7F89423
:1004D000EE89FF896083E889F9898081837080646F
:1004E00080839FBF81E090E0DF91CF911F910F91BA
:1004F000FF90EF900895F62E0B8D10E00F5F1F4FC9
:100500000F731127E02E8C8D8E110CC00FB607FCD7
:10051000FACFE889F989808185FFF5CFCE010E9465
:100520003202F1CFEB8DEC0FFD2FF11DE35AFF4F9F
:10053000F0829FB7F8940B8FEA89FB8980818062F3
:10054000CFCFCF93DF93EC01888D8823B9F0AA89B0
:10055000BB89E889F9898C9185FD03C0808186FD7E
:100560000DC00FB607FCF7CF8C9185FFF2CF8081CD
:1005700085FFEDCFCE010E943202E9CFDF91CF910E
:100580000895089520913F04260F3327331F213209
:100590003105ECF420918804FC0190E080E02430E7
:1005A00069F082E00895A0913F042191AC01415E81
:1005B0005B4FA40FB52FB11D2C930196861798F3AE
:1005C00080913F04680F60933F0480E0089581E0CC
:1005D00008951092880481E0809387041092620449
:1005E00061E082E10E94E10061E083E10E94E100BC
:1005F000E9EBF0E080818E7F808380818D7F808336
:1006000088E48093B80085E48093BC000895CF937C
:10061000DF9391E090931E048823B9F0C091B80055
:10062000D091BA008091BC008A7B8093BC0060E0CE
:1006300082E10E94E10060E083E10E94E1000E940B
:10064000E902D093BA00C093B800DF91CF9108952A
:100650000895E091B7048091B604E81730F4F0E013
:10066000E250FC4F808190E008958FEF9FEF089556
:100670009091B7048091B6042FEF3FEF981748F49C
:10068000E92FF0E0E250FC4F208130E09F5F909333
:10069000B704C90108958091B6049091B704891BED
:1006A000990B0895CF92DF92EF92FF920F931F93D1
:1006B000CF93DF937C01CB018A0120918E0422230A
:1006C00089F0EB016B01C40ED51ECC15DD0569F078
:1006D0006991D701ED91FC910190F081E02DC70166
:1006E0000995F3CF642F0E94C202C801DF91CF9118
:1006F0001F910F91FF90EF90DF90CF900895CF93CF
:10070000DF931F92CDB7DEB7698320918E04222339
:10071000F9F02091B404203258F021E030E0FC01DF
:100720003383228390E080E00F90DF91CF91089592
:100730008091B504E82FF0E0E157FB4F9981908359
:100740008F5F8093B5048093B40481E090E0ECCF98
:1007500061E0CE0101960E94C202F7CFCF92DF92F4
:10076000EF92FF920F931F93CF93DF93FC01C4810D
:1007700021E020938E04C093AF041092B504109230
:10078000B4048385682B88E695E00E947F03D091AE
:10079000B404D13208F092C00E9440016B017C0188
:1007A00080918804811165C082E08093880481E093
:1007B000809387048FEF8093860410928504D093F2
:1007C0008404AFE8B4E0E4E6F4E080E0D81385C048
:1007D0001092630480916304CC0FC82BC093630410
:1007E00080916204813009F07CC0109262040E9402
:1007F00040016B017C01809163048093BB00809178
:100800008A0490918B04A0918C04B0918D04892B63
:100810008A2B8B2B99F00E94400100918A04109141
:100820008B0420918C0430918D046C197D098E0904
:100830009F090617170728073907E0F18091BC00C8
:1008400083FDD9CF85EC8093BC000E9440016B01F1
:100850007C0180918804823009F445C0809186042F
:100860008F3F61F180918604803241F1809186044E
:1008700025C080918A0490918B04A0918C04B09142
:100880008D04892B8A2B8B2B09F48ACF0E9440017F
:1008900000918A0410918B0420918C0430918D0476
:1008A0006C197D098E099F09061717072807390754
:1008B00008F076CF809189040E9407031092B50456
:1008C0001092B40410928E04DF91CF911F910F917A
:1008D000FF90EF90DF90CF9008959D9191938F5F5F
:1008E00075CF85EEB0CF80918A0490918B04A09152
:1008F0008C04B0918D04892B8A2B8B2B09F4A9CF02
:100900000E94400100918A0410918B0420918C0474
:1009100030918D046C197D098E099F090617170700
:100920002807390708F095CFC5CF90E080E00895FB
:10093000BC016E5F7F4FDC01ED91FC910190F08175
:10094000E02D40E0099591E0811190E0892F089514
:1009500008958EBD00000DB407FEFDCF8EB508953D
:10096000DF92EF92FF920F931F93CF93DF937C015F
:10097000062FD42E152F80E590E00E948C0060E0B9
:10098000F70186850E94E10082E10E94A904CD2D35
:10099000D12F0C0F1D2F111DC017D10721F08991E8
:1009A0000E94A904F9CF61E0F7018685DF91CF911C
:1009B0001F910F91FF90EF90DF900C94E1001F9337
:1009C000CF93DF93EC01162F80E590E00E948C001E
:1009D00060E08E850E94E100812F80680E94A9045A
:1009E00080E00E94A904182F61E08E850E94E1003A
:1009F000812FDF91CF911F9108950F931F93CF9374
:100A0000DF93EC01062F142F80E590E00E948C000C
:100A100060E08E850E94E100802F0E94A904812F52
:100A20000E94A90461E08E85DF91CF911F910F9103
:100A30000C94E100CF92DF92EF92FF920F931F93FD
:100A4000CF93DF93EC016B01F42E890140E062E06B
:100A50000E94FD0444E06AE0CE010E94FD0440E8EB
:100A600064E1CE010E94FD04A6016F2DCE010E941B
:100A7000B00443E062E0CE010E94FD040E949801B0
:100A80006B017C0129E5C20ED11CE11CF11C6AE05E
:100A9000CE010E94DF0482FF1BC040E062E0CE0175
:100AA0000E94FD0464E4CE010E94DF04F80180830B
:100AB00062E4CE010E94DF04F801818380E0DF91CF
:100AC000CF911F910F91FF90EF90DF90CF900895FD
:100AD0000E9498016C157D058E059F05C0F283E08C
:100AE000EECF2F923F924F925F926F927F928F92B2
:100AF0009F92AF92BF92CF92DF92EF92FF920F93AD
:100B00001F93CF93DF9300D0CDB7DEB73C01162FF4
:100B1000942E290180E0A114B10411F0F501808127
:100B2000382C329490EF3922380E40E062E0C30155
:100B30000E94FD044FE768E0C3010E94FD0440E805
:100B400064E1C3010E94FD04A201602FC3010E9461
:100B5000B004432D6AE1C3010E94FD04412F62E00D
:100B6000C3010E94FD041C3051F46AE1C3010E94DC
:100B7000DF04482F40686AE1C3010E94FD040E941F
:100B800098011B012C01F4E22F0E311C411C511C59
:100B900068E0C3010E94DF04982F992109F0B6C0D4
:100BA00080FF16C083E00F900F90DF91CF911F91CF
:100BB0000F91FF90EF90DF90CF90BF90AF909F90FC
:100BC0008F907F906F905F904F903F902F900895FF
:100BD0000E9498016215730584059505C8F2E2CF5D
:100BE000E114F10409F467C0C114D10409F463C02D
:100BF00064E1C3010E94DF04982EF601808189150B
:100C000008F47EC090829920C9F180E590E00E94AE
:100C10008C0060E0F30186850E94E1009A9482E9ED
:100C20000E94A904882099F00FEF10E001C0000F86
:100C30008A94EAF782E90E94A904902F9095F7011F
:100C4000208192238023982B90838824839487018A
:100C5000080D111D891440F482E90E94A904F801CD
:100C600081938F018394F6CF80E00E94A904F8015C
:100C7000808361E0F30186850E94E10068E1C301A1
:100C80000E94DF048770A114B10411F0F501808384
:100C900053FC38C0E114F104B9F1C114D104A1F13D
:100CA0009F89992389F1F6014081413031F48430E4
:100CB00029F58FEF78CF80E0EBCF4230F8F081114B
:100CC0001DC042509E012F5F3F4FB701C3010E94DC
:100CD0001A05811168CFF6019081E90EF11CF70128
:100CE000329720819981291309C0F1E0EF1AF108A8
:100CF000F70120819A81291709F455CF87E053CF56
:100D000084E051CF82E04FCF80E04DCF6CE0C30153
:100D10000E94DF04582E837109F462CF81E043CF33
:100D20000F931F93CF93DF938C01D62FC42F0E9474
:100D3000DF04C0954C2F48236D2FC801DF91CF9160
:100D40001F910F910C94FD046F927F928F92AF923E
:100D5000BF92CF92DF92EF92FF920F93CF93DF93E8
:100D600000D000D01F92CDB7DEB73C0182E08D836A
:100D700040E064E2C3010E94FD0440E066E2C3017A
:100D80000E94FD0446E268E4C3010E94FD0486E27D
:100D90008B838D818230C8F140E86CE1C3010E94F1
:100DA000900687E08C831F92812CCE0104965C0113
:100DB00001966C0104977C0101E09E012D5F3F4F7D
:100DC00040E36CE0C3010E947105982F0F908111E0
:100DD00019C08D818230C9F48C81811116C081E0E7
:100DE0000F900F900F900F900F90DF91CF910F9178
:100DF000FF90EF90DF90CF90BF90AF908F907F905B
:100E00006F90089581E0923059F380E0E9CF2F92FE
:100E10003F924F925F926F927F928F929F92AF928A
:100E2000BF92CF92DF92EF92FF920F931F93CF93D7
:100E3000DF93CDB7DEB72E970FB6F894DEBF0FBEA7
:100E4000CDBF06E0413508F046C14E873B012C017D
:100E500040E86CE10E94900683E989832E85222375
:100E600029F081E0F3019081953008F480E0992425
:100E700093941C869C85990F990F990F1E85191BB9
:100E800017FD10E032E0882319F098E89B8333E0E7
:100E900021E0912F977009F420E0912F9595959579
:100EA0009595290FD1F094E0811193E0291708F46A
:100EB000922F2C85E22FF0E03196E60DF71D232FBF
:100EC0004191A1E0B0E0AC0FBD1FA20FB11D4C934A
:100ED0002F5F422F431B491798F38111185F10327F
:100EE0000CF484C080E78A838B819C8189279D8153
:100EF00089279E8189278F839E01285F3F4F47E086
:100F0000BE016F5F7F4FC2010E941A05082F811139
:100F1000E2C01A8693E09B871D87FE0137961F016A
:100F200009E08A84482D4295407F480D6AE1C2015C
:100F30000E94FD041F92CE010A965C01FE013B96C1
:100F40006F0171019E012F5F3F4F40E36CE0C201D2
:100F50000E947105082F0F90823009F065C06CE186
:100F6000C2010E94DF0485FDB6C08F7109F480E2E2
:100F7000282F30E0412F110F550B421753070CF06B
:100F80009EC0182FE22FE595E595E595EF5F922F2E
:100F9000977081E009F480E0E80F81E090E08C0F29
:100FA0009D1F8E0F911DFC012150310927703327A1
:100FB00081E090E002C0880F991F2A95E2F79C011A
:100FC0008081822B80838BCF85E98983FE85FF23F7
:100FD00031F081E0F3019081983008F04BCF80E050
:100FE00049CF87E98983F6E0FC87F9CF912F977085
:100FF0009A87812F8595859585958E5F282F2295D7
:10100000207F290F2A8301E0911101C000E0080F21
:1010100022242394312C2C0E3D1E280E311CF9E085
:10102000F81BFB871D877DCF811155C010E29D8580
:1010300090320CF457CF8B81883809F042C083E09E
:1010400093E02C85E22FF0E03196E60DF71D980F26
:10105000A1E0B0E0AC0FBD1FA80FB11D2C912193F2
:101060008F5F8913F5CF8B858C87833009F04DC056
:101070008A8581114AC09E012D5F3F4F41E0B10139
:10108000C2010E941A05082F811125C09B81F10120
:10109000818198133CC09C818281981338C08081E3
:1010A00082FF12C09394F2E09F1609F48DCF23E0E3
:1010B000921609F496CF81E0981609F4CDCE05E09A
:1010C0000AC082E094E0BDCFF3018387892D880FA9
:1010D000980E93949082802F2E960FB6F894DEBFD0
:1010E0000FBECDBFDF91CF911F910F91FF90EF9079
:1010F000DF90CF90BF90AF909F908F907F906F9038
:101100005F904F903F902F90089501E0E4CF07E06B
:10111000E2CF42E050E06BE871E08BEC94E00C949D
:10112000B401CF93DF93BC018BEC94E00E94A60145
:10113000EC010E9489088C0F9D1FDF91CF910895CB
:101140000F931F93CF93DF93EC01888199810097D0
:1011500059F02A813B812617370730F081E0DF9173
:10116000CF911F910F9108958B016F5F7F4F0E9468
:101170001915009759F0998388831B830A832C8162
:101180003D81232B59F7FC011082E8CF80E0E7CFA7
:10119000CF93DF93EC0188819981009711F00E9431
:1011A0009014198218821D821C821B821A82DF9180
:1011B000CF910895EF92FF920F931F93CF93DF93F8
:1011C000EC017B018A01BA010E94A00881110BC0C9
:1011D000CE010E94C808CE01DF91CF911F910F91DF
:1011E000FF90EF9008951D830C83B701888199814A
:1011F0000E94DF15F0CFFB0101900020E9F7319745
:10120000AF01461B570B0C94DA08CF93DF93EC0128
:10121000FB018617970749F060817181611571059F
:1012200041F0448155810E94DA08CE01DF91CF91CF
:1012300008950E94C808F9CFFC0111821082138220
:101240001282158214820C940509FC01118210820D
:101250001382128215821482FB0101900020E9F7AB
:101260003197AF01461B570B0C94DA08FC018081C3
:101270009181009711F00C94901408950F931F938F
:10128000CF938C01C62F0E94AE036C2F6460C801FF
:101290000E94AE036C2F6B7FC8010E94AE0383ECEB
:1012A00090E00197F1F7CF911F910F9108950F935F
:1012B0001F93CF93DF938C01D62FC42F607F642BB5
:1012C0000E943E0980E1D89FB00111246C2BC80117
:1012D000DF91CF911F910F910C943E09CF93DF9333
:1012E000CDB7DEB728970FB6F894DEBF0FBECDBFDF
:1012F00098E0E8E0F1E0DE01119601900D929A95F8
:10130000E1F790917C05981710F48FEF890F90E02A
:10131000880F991F21E030E02C0F3D1F820F931F93
:10132000FC016081606840E084E795E028960FB694
:10133000F894DEBF0FBECDBFDF91CF910C9457095B
:1013400041E00E94570981E090E00895CF93DF9338
:10135000EC016DE871E00E9425098091B90490913B
:10136000BA048230910559F08330910571F06EE82E
:1013700071E0019731F0CE01DF91CF91089560EADD
:1013800071E0CE010E94FB08F6CF62EB71E0F9CF6D
:1013900085ED8093BC0080918A0490918B04A0918C
:1013A0008C04B0918D040796A11DB11D23E0B69564
:1013B000A795979587952A95D1F72091BC0024FD94
:1013C00003C010928804089540918A0450918B04C0
:1013D00060918C0470918D04452B462B472B69F34B
:1013E0000097A105B10541F02AE22A95F1F700C066
:1013F0000197A109B109E1CF809189040C940703F9
:101400008F929F92AF92BF92CF92DF92EF92FF9214
:101410000F931F93CF93DF9300D000D000D0CDB7B0
:10142000DEB77C010E941C09D701AD90BC901197DA
:10143000A114B10441F014960D911C9165010115A0
:10144000110509F04AC0F701848195819695879529
:101450002AE030E05901A81AB90AD12CC12CCA14CB
:10146000DB040CF079C064EC71E0CE0101960E94BF
:101470002509D7018D909C9011978114910409F44E
:1014800066C014960D911C9101151105B9F08D815E
:101490009E81080F191FB801CE0101960E94A00875
:1014A000882309F454C029813A818D819E81B40139
:1014B000820F931F0E94DF151E830D83BE016F5F95
:1014C0007F4FC7010E940509CE0101960E9436098F
:1014D000BFEFCB1ADB0AC3CF64014601BFEF8B1A03
:1014E0009B0AF6018081082E000C990B0E94AB1319
:1014F000892B91F7015011090A0D1B1DD8018C9100
:10150000082E000C990B0E94AB13892B31F00C159F
:101510001D0518F001501109F1CFA8014F5F5F4F71
:101520004C195D09F70155834483AC14BD0420F4C4
:10153000B601C5010E94D615D701ED91FC91119716
:1015400014968D919C91E80FF91F10827CCFCE01EB
:1015500001960E94C808B2CFF701C480D580F4E19B
:10156000CF16D1047CF5B701CE0101960E941C096B
:101570000D811E810F5F1F4FB801CE0101960E94A1
:10158000A008811112C0CE0101960E94C808BE01B8
:101590006F5F7F4FC7010E940509CE0101960E942F
:1015A00036098FEFC81AD80ADACF29813A818D819E
:1015B0009E8164EC71E0820F931F0E94DF151E83F1
:1015C0000D83E5CFC70126960FB6F894DEBF0FBE98
:1015D000CDBFDF91CF911F910F91FF90EF90DF90E2
:1015E000CF90BF90AF909F908F900895AF92BF9291
:1015F000CF92DF92EF92FF920F931F93CF93DF93DF
:10160000CDB7DEB72C970FB6F894DEBF0FBECDBFB7
:101610005C016B017A01890141E050E06CE871E006
:101620008BEC94E00E94B4010E948908B501CE01C0
:1016300001960E941C09BE016F5F7F4FCE01079685
:101640000E94000ACE0107960E949108CE010796DB
:101650000E943609CE0101960E943609B601CE01DC
:1016600001960E941C09BE016F5F7F4FCE01079655
:101670000E94000ACE0107960E949108CE010796AB
:101680000E943609CE0101960E943609B701CE01AB
:1016900001960E941C09BE016F5F7F4FCE01079625
:1016A0000E94000ACE0107960E949108CE0107967B
:1016B0000E943609CE0101960E943609B801CE017A
:1016C00001960E941C09BE016F5F7F4FCE010796F5
:1016D0000E94000ACE0107960E949108CE0107964B
:1016E0000E943609CE0101960E94360940E061E071
:1016F00084E795E00E9457098BE39FE10197F1F79A
:1017000080E00E946E09B501CE0101960E941C097D
:10171000BE016F5F7F4FCE0107960E94000ABE0197
:10172000695F7F4F84E795E00E94A601CE0107968E
:101730000E943609CE0101960E94360981E00E947E
:101740006E09B601CE0101960E941C09BE016F5FB1
:101750007F4FCE0107960E94000ABE01695F7F4F4E
:1017600084E795E00E94A601CE0107960E94360903
:10177000CE0101960E94360982E00E946E09B701EF
:10178000CE0101960E941C09BE016F5F7F4FCE0102
:1017900007960E94000ABE01695F7F4F84E795E0CB
:1017A0000E94A601CE0107960E943609CE0101963D
:1017B0000E94360983E00E946E09B801CE010196AD
:1017C0000E941C09BE016F5F7F4FCE0107960E94E9
:1017D000000ABE01695F7F4F84E795E00E94A60181
:1017E000CE0107960E943609CE0101960E94360965
:1017F0002C960FB6F894DEBF0FBECDBFDF91CF9110
:101800001F910F91FF90EF90DF90CF90BF90AF901E
:1018100008951F920F920FB60F9211242F933F93AA
:101820008F939F93AF93BF938091C3049091C4040F
:10183000A091C504B091C6043091C20423E0230FE7
:101840002D3758F50196A11DB11D2093C204809338
:10185000C3049093C404A093C504B093C6048091BC
:10186000C7049091C804A091C904B091CA0401961C
:10187000A11DB11D8093C7049093C804A093C9040F
:10188000B093CA04BF91AF919F918F913F912F91D7
:101890000F900FBE0F901F90189526E8230F029609
:1018A000A11DB11DD2CF1F920F920FB60F9211241E
:1018B0002F933F934F935F936F937F938F939F9358
:1018C000AF93BF93EF93FF938BEC94E00E943202AF
:1018D000FF91EF91BF91AF919F918F917F916F9108
:1018E0005F914F913F912F910F900FBE0F901F90DE
:1018F00018951F920F920FB60F9211242F938F936A
:101900009F93EF93FF93E091DB04F091DC048081DF
:10191000E091E104F091E20482FD1BC0908180918E
:10192000E4048F5F8F732091E504821741F0E0910A
:10193000E404F0E0E553FB4F958F8093E404FF91BE
:10194000EF919F918F912F910F900FBE0F901F904D
:1019500018958081F4CF1F920F920FB60F92112429
:101960002F933F934F935F936F937F938F939F93A7
:10197000AF93BF93EF93FF938091B900887F803638
:1019800009F44AC0F0F5883209F4A7C018F580318F
:1019900009F49BC0B8F4882309F4F9C0883009F42D
:1019A00094C0FF91EF91BF91AF919F918F917F91E3
:1019B0006F915F914F913F912F910F900FBE0F90BC
:1019C0001F901895883109F488C0803251F78093B0
:1019D000860414C0803409F49DC040F48033B9F308
:1019E0008833F9F68093860485ECB0C0803509F41D
:1019F00085C0883509F496C0883499F60E94C809D4
:101A0000D0CF883909F48CC038F5883729F050F4E4
:101A1000883611F0803729F683E08093880410928D
:101A2000610457C0883809F47BC0803919F08038C8
:101A300009F0B7CF80916104803208F071C0E09165
:101A4000610481E08E0F809361048091BB00F0E01F
:101A5000EF5BFB4F80833DC0803B39F0E0F4803A80
:101A600009F479C0883A09F09CCF84E08093880417
:101A70001092400410923F04E091B204F091B3043C
:101A8000099580913F0481110FC081E080933F044C
:101A900010921F0409C0803C09F4A6CF883C09F4C9
:101AA000A3CF883B09F07DCFE091400481E08E0F09
:101AB00080934004F0E0E15EFB4F80818093BB00A7
:101AC0009091400480913F0429C0809163048093E9
:101AD000BB0085EC8093BC0064CF9091850480911D
:101AE0008404981758F5E091850481E08E0F809367
:101AF0008504F0E0EC59FB4F8081E9CFE09185044B
:101B000081E08E0F809385048091BB00F0E0EC595A
:101B1000FB4F808390918504809184049817C8F2CC
:101B200085E8D8CFE091850481E08E0F809385040D
:101B30008091BB00F0E0EC59FB4F808380918704DB
:101B400081115CCF81E08093620484EA8093BC00C1
:101B50001092880426CF85EC8093BC0010928804F4
:101B600080916104803230F4E0916104F0E0EF5B39
:101B7000FB4F10826091610470E0E091B004F0913D
:101B8000B10481E494E00995109261040ACF1092A7
:101B9000860434CFEBECF4E01382128288EE93E0FB
:101BA000A0E0B0E084839583A683B78325E531E088
:101BB0003183208325EC30E03587248724EC30E026
:101BC0003787268720EC30E0318B208B21EC30E00A
:101BD000338B228B22EC30E0358B248B26EC30E0EB
:101BE000378B268B118E128E138E148EE8E6F5E05D
:101BF0001382128284839583A683B78387E691E05C
:101C000091838083E0E8F5E085E891E0918380832B
:101C10008AE0868789E08787E4E7F5E0138212820D
:101C200089E791E09183808388E3848388E28187D8
:101C300084E0828713860895CF93DF93CDB7DEB714
:101C40006E970FB6F894DEBF0FBECDBF789484B503
:101C5000826084BD84B5816084BD85B5826085BDA8
:101C600085B5816085BD80916E00816080936E0036
:101C70001092810080918100826080938100809128
:101C800081008160809381008091800081608093D9
:101C900080008091B10084608093B1008091B00099
:101CA00081608093B00080917A00846080937A0094
:101CB00080917A00826080937A0080917A008160BE
:101CC00080937A0080917A00806880937A001092E5
:101CD000C1001092B7041092B6041092B50410928D
:101CE000B4040E94E90284EA91E09093B3048093E3
:101CF000B20485EA91E09093B1048093B00410920D
:101D0000790580917E05823018F098E090937905EE
:101D100080937C0562E370E080E090E00E946501C2
:101D200060917F0584E795E00E94AE0368EE73E062
:101D300080E090E00E94650160E384E795E00E9406
:101D40003E090BE416E4C8010197F1F760E384E76C
:101D500095E00E943E09C8010197F1F760E384E72E
:101D600095E00E943E0983E592E00197F1F760E279
:101D700084E795E00E943E0960917905606240E049
:101D800084E795E00E94570984E080937A0540E05B
:101D90006CE084E795E00E94570940E061E084E749
:101DA00095E00E9457090BE31FE1C8010197F1F785
:101DB00092E0992E90927B0540E066E084E795E002
:101DC0000E94570940E062E084E795E00E945709CD
:101DD000C8010197F1F788E080937F0560E084E710
:101DE00095E00E94AE03E091DB04F091DC04908268
:101DF000E091D704F091D8041082E091D904F091D9
:101E0000DA048FEC80831092E304E091DF04F09118
:101E1000E00486E08083E091DD04F091DE048081BF
:101E200080618083E091DD04F091DE048081886030
:101E30008083E091DD04F091DE04808180688083FE
:101E4000E091DD04F091DE0480818F7D808360E08D
:101E500084E00E940F0160E083E00E940F0160E0D7
:101E600082E00E940F0161E085E00E940F0161E0C5
:101E700086E00E940F0160E085E00E94E10060E0E2
:101E800086E00E94E1001FB7F8948091B8048111A8
:101E900027C0E0E9F0E08491E4EAF0E09491E82FD3
:101EA000F0E0EE0FFF1FE859FF4FA591B491EC91C0
:101EB000E92321F461E08AE00E94E10061E08AE028
:101EC0000E940F018CB580618CBD8CB580648CBD87
:101ED00061E08DE00E940F0161E08BE00E940F0144
:101EE0008091B8048F5F8093B8041FBF61E0809138
:101EF0008E050E940F0161E080918E050E94E10035
:101F000080918F058F3F09F491C060E00E940F011E
:101F100080918F050E94B800892B09F087C061E08D
:101F200080918F050E940F0160E080918F050E94D3
:101F3000E10083E090E00197F1F761E080918F0587
:101F40000E94E10062E370E080E090E00E946501A1
:101F500040E064E280E895E00E94FD0440E066E233
:101F600080E895E00E94FD0446E268E480E895E0A0
:101F70000E94FD0440E864E580E895E00E94FD04CD
:101F800049EA66E580E895E00E94FD0443E068E5E3
:101F900080E895E00E94FD0448EE6AE580E895E05F
:101FA0000E94FD0440E46AE280E895E00E94FD049E
:101FB0004DE362E280E895E00E94FD0468E280E87B
:101FC00095E00E94DF04982F9370933039F0482FEA
:101FD000436068E280E895E00E94FD046AE070E0FA
:101FE00080E090E00E9465013E012DE0620E711CD0
:101FF0002E0183E1480E511C1FEFE0910001F0918A
:1020000001013197E830F10508F065C0E25FFF4E4D
:102010002090C0043090C1040C94EE132D10A61033
:102020008311B1116D12941235137C134FE062E0ED
:1020300080E895E00E94FD0413E062E370E080E038
:1020400090E00E94650162E080E895E00E94DF0474
:1020500084FF7ECF115089F77BCF91E029163104A0
:1020600009F446C066EC71E0CE0101960E94250994
:1020700066ED71E0C3010E9425096BEE71E0C201BB
:102080000E9425096DEF71E0CE0149960E94250955
:102090009E012F5F3F4FA301B201CE0149960E94DE
:1020A000F60ACE0149960E943609C2010E943609FD
:1020B000C3010E943609CE0101960E943609109292
:1020C000BA041092B904809100019091010190939B
:1020D000C1048093C00480E090E0892B09F48DCF87
:1020E0000E941E02882309F487CF0E94000084CF3B
:1020F00084E00E94B800019739F43092BA0420922B
:10210000B90482E090E00BC083E00E94B800019720
:1021100089F482E090E09093BA048093B90490939C
:1021200001018093000164E670E080E090E00E948D
:102130006501D1CF82E00E94B800019761F683E08B
:1021400090E09093BA048093B904DBCF92E0291613
:10215000310461F161E172E0CE0101960E9425092E
:10216000C3010E94A60966E272E0C2010E9425092D
:1021700063E372E0CE0149960E9425099E012F5F1C
:102180003F4FA301B201CE0149960E94F60ACE014B
:1021900049960E943609C2010E943609C3010E9475
:1021A0003609CE0101960E9436098DCF82E00E9449
:1021B000B800019719F481E090E0B1CF80E895E094
:1021C0000E94A406882309F486CF80E895E00E9447
:1021D0009804882309F47FCFE0918D05EF7780E0A4
:1021E000E13420F4F0E0E05FFE4F808184508230E3
:1021F00008F0A0C21D871E871F87188B198B1A8BAA
:1022000080E6898384E08A83D301FE0133961F012F
:102210008D918193A415B505D9F7E0918205E15020
:10222000FF0BE058FA4FDE01199681918D93A615A8
:10223000B705D9F71F92812CB12CA12CD12CC12C20
:10224000F12CE12C0CE09E012F5F3F4F40E16EE04E
:1022500080E895E00E947105982E80E589831A82B6
:10226000910142E0BE016F5F7F4F80E895E00E94E0
:102270001A050F9081110CC01F9204E09E012F5F80
:102280003F4F40E36CE080E895E00E9471050F90BD
:1022900048E060E180E895E00E94900683E090E0ED
:1022A000992009F424C261E172E0CE0149960E94AE
:1022B0002509C2010E94A60967E472E0C3010E94D9
:1022C000250968E572E0CE0101960E9425099E016C
:1022D000275E3F4FA201B301CE0101960E94F60A8C
:1022E000CE0101960E943609C3010E943609C2013F
:1022F0000E943609CE0149960E94360964EF71E0CA
:1023000080E090E014CF93E02916310499F063E85F
:1023100072E0CE0101960E94250969E672E0C301D0
:102320000E9425096EE772E0C2010E9425096DE84E
:1023300072E020CF84E00E94B800019709F0CBCE74
:1023400084E090E0909301018093000164E670E0E6
:1023500080E090E00E94650161E086E00E94E1007B
:10236000BACE94E02916310409F46FC061E086E02A
:102370000E94E1000E9498016093BC047093BD0428
:102380008093BE049093BF0484E090E09093C104D6
:102390008093C0046EE972E0CE0101960E94250987
:1023A00069EA72E0C3010E9425096AEB72E0C2018A
:1023B0000E9425096FEC72E0CE0149960E94250922
:1023C0009E012F5F3F4FA301B201CE0149960E94AB
:1023D000F60ACE0149960E943609C2010E943609CA
:1023E000C3010E943609CE0101960E9436098091F0
:1023F000BB0481111DC00E9498018090BC04909084
:10240000BD04A090BE04B090BF04681979098A0980
:102410009B09683B7B408105910550F060E086E0B8
:102420000E94E10085E090E090930101809300011B
:1024300084E00E94B800019709F04DCE1092BB04D1
:1024400061E086E00E94E1006ECE8091BB048111C4
:10245000EFCF82E00E94B800019769F60E949801D0
:102460006093BC047093BD048093BE049093BF043A
:1024700081E08093BB0460E086E00E94E10063E8B5
:1024800072E0CE0101960E94250967E373E0C30163
:102490000E9425096BE473E0C2010E94250960EEE9
:1024A00072E0CE0149960E9425099E012F5F3F4FA1
:1024B000A301B201CE0149960E94F60ACE014996C7
:1024C0000E943609C2010E943609C3010E943609E2
:1024D000CE0101960E94360926CE95E029163104D8
:1024E00071F06EE073E0CE0101960E94250964EF61
:1024F00072E0C3010E94250969E073E015CF84E012
:102500000E94B800019709F0E6CD86E090E0909334
:1025100001018093000164E670E080E090E00E9499
:10252000650160E085E01ACF96E02916310409F4D0
:102530006FC06EE972E0CE0101960E94250969EA3A
:1025400072E0C3010E9425096AEB72E0C2010E9499
:10255000250969E173E0CE0149960E9425099E0193
:102560002F5F3F4FA301B201CE0149960E94F60AA8
:10257000CE0149960E943609C2010E943609C30164
:102580000E943609CE0101960E94360961E085E07D
:102590000E94E1000E9498016093BC047093BD0406
:1025A0008093BE049093BF0480910001909101013B
:1025B0009093C1048093C0048091BB0481111DC01D
:1025C0000E9498018090BC049090BD04A090BE042D
:1025D000B090BF04681979098A099B09683B7B4060
:1025E0008105910550F060E085E00E94E10087E000
:1025F00090E0909301018093000184E00E94B80074
:10260000019709F068CD1092BB0461E085E01ACF14
:102610008091BB048111F1CF82E00E94B800019744
:1026200079F60E9498016093BC047093BD04809376
:10263000BE049093BF0481E08093BB0460E085E01A
:102640000E94E1006BE273E0CE0101960E94250931
:1026500066E373E0C3010E94250967E473E0C201E9
:102660000E94250966E573E01CCF97E02916310426
:1026700009F431CD67E673E0CE0149960E94250941
:1026800065E773E0C2010E9425096FE773E0C301AB
:102690000E94250961E973E0CE0101960E94250997
:1026A0009E01275E3F4FA201B301CE0101960E9419
:1026B000F60ACE0101960E943609C3010E9436092E
:1026C000C2010E943609CE0149960E9436098091C6
:1026D0000001909101019093C1048093C00460EACD
:1026E0007FE080E090E00E94650181E090E09093BF
:1026F000010180930001EFCC98E02916310499F094
:102700006DE871E0CE0101960E94250961EA73E04F
:10271000C3010E9425096FEB73E0C2010E942509E5
:1027200067ED73E027CD84E00E94B800019709F0BF
:10273000D2CC41CD61E172E0CE0149960E942509DB
:10274000C2010E94A60967E472E0C3010E94250944
:1027500068EE73E0B8CD91110C94B413803219F087
:1027600089508550C8F708959927882708952F9292
:102770003F924F925F926F927F928F929F92AF9211
:10278000BF92CF92DF92EF92FF920F931F93CF935E
:10279000DF93CDB7DEB7CA1BDB0B0FB6F894DEBFF5
:1027A0000FBECDBF09942A88398848885F846E841B
:1027B0007D848C849B84AA84B984C884DF80EE8065
:1027C000FD800C811B81AA81B981CE0FD11D0FB66E
:1027D000F894DEBF0FBECDBFED010895EE0FFF1FD1
:1027E0000590F491E02D09940F931F93CF93DF93FD
:1027F0008230910510F482E090E0E0919205F09132
:10280000930530E020E0B0E0A0E0309799F4211586
:10281000310509F44AC0281B390B24303105D8F59D
:102820008A819B816115710589F1FB019383828304
:10283000FE0111C04081518102811381481759075F
:10284000E0F04817590799F4109761F012960C932D
:10285000129713961C933296CF01DF91CF911F915F
:102860000F9108950093920510939305F4CF2115CD
:10287000310551F04217530738F0A901DB019A01E5
:10288000BD01DF01F801C1CFEF01F9CF90939305AE
:1028900080939205CDCFFE01E20FF31F81939193B8
:1028A0002250310939832883D7CF20919005309168
:1028B0009105232B41F420910401309105013093BF
:1028C000910520939005209102013091030121157B
:1028D000310541F42DB73EB74091060150910701F3
:1028E000241B350BE0919005F0919105E217F30759
:1028F000A0F42E1B3F0B2817390778F0AC014E5F70
:102900005F4F2417350748F04E0F5F1F5093910516
:1029100040939005819391939FCFF0E0E0E09CCFAE
:10292000CF93DF930097E9F0FC0132971382128274
:10293000A0919205B0919305ED0130E020E0109751
:10294000A1F420813181820F931F20919005309155
:1029500091052817390709F061C0F0939105E093BC
:102960009005DF91CF910895EA01CE17DF07E8F5D2
:102970004A815B819E0141155105B1F7E901FB8355
:10298000EA8349915991C40FD51FEC17FD0761F4F3
:10299000808191810296840F951FE9019983888334
:1029A000828193819B838A83F0E0E0E012968D918F
:1029B0009C9113970097B9F52D913C911197CD01FA
:1029C0000296820F931F2091900530919105281750
:1029D000390739F6309751F5109293051092920508
:1029E000B0939105A0939005BCCFD383C28340815F
:1029F0005181840F951FC817D90761F44E5F5F4F4F
:102A000088819981480F591F518340838A819B8116
:102A1000938382832115310509F0B0CFF09393059C
:102A2000E09392059ECFFD01DC01C0CF138212829C
:102A3000D7CFB0E0A0E0EFE1F5E10C94B9138C0141
:102A4000009751F4CB010E94F4138C01C801CDB75B
:102A5000DEB7E0E10C94D513FC01E60FF71F9C01F3
:102A600022503109E217F30708F49DC0D901CD9136
:102A7000DC911197C617D70798F0C530D10530F310
:102A8000CE0104978617970708F3C61BD70B22972A
:102A9000C193D1936D937C93CF010E949014D6CFB4
:102AA0005B01AC1ABD0A4C018C0E9D1EA0919205D3
:102AB000B0919305512C412CF12CE12C109731F55C
:102AC00080919005909191058815990509F05CC059
:102AD0004616570608F058C08091020190910301F4
:102AE000009741F48DB79EB74091060150910701C0
:102AF000841B950BE817F90708F055C0F093910572
:102B0000E0939005F90171836083A0CF8D919C9132
:102B1000119712966C90129713967C901397A815A4
:102B2000B90559F56C0142E0C40ED11CCA14DB048E
:102B300020F1AC014A195B09DA011296159780F071
:102B40006282738251834083D9016D937C93E11437
:102B5000F10471F0D7011396FC93EE93129776CFA0
:102B600022968C0F9D1FF90191838083F301EFCF93
:102B7000F0939305E093920569CF4816590608F43F
:102B80002C017D01D3019ACFCB010E94F4137C016B
:102B9000009749F0AE01B8010E94D615C8010E9405
:102BA0009014870153CF10E000E050CFFB01DC010F
:102BB00002C001900D9241505040D8F70895FB019A
:102BC000DC0101900D920020E1F70895F894FFCF09
:102BD0000100000094058000000040001400540033
:102BE00006090000FF0000000403000000000000D0
:102BF00007070000000000000500000000000000C2
:102C000001000000000000000000000000000000C3
:102C100000000000000000000000000000000000B4
:102C200002000000005402B401E101A1021202F00E
:102C3000010402000000007F035203950428034BA7
:102C4000033803290300000000A009B4019504C162
:102C500002000000000707A40698040D0A004D6F4B
:102C60006E746F2033242078203230206C7473000F
:102C70004D6F6E746F2032242078203135206C74B3
:102C800073004D6F6E746F20312420782031302016
:102C90006C74730020005B524F4A4F5D2035206CEE
:102CA0007473203124005B414D4152494C4C4F5DBF
:102CB000203130206C7473203224005B564552441E
:102CC000455D203135206C74732033240053656CCE
:102CD000656363696F6E6520626F74656C6C6F6E9F
:102CE000005B524F4A4F5D20766F6C7665722061B3
:102CF000204D454E5500656E20656C204C45435473
:102D00004F520050726573656E7465207375205460
:102D100041524A4554410050726573656E74652096
:102D20005441524A455441005461726A65746120AD
:102D3000696E76616C696461005B56455244455D1D
:102D400020696E69636961722070617261007061EF
:102D5000726120656C204C415641444F00436F6CBA
:102D60006F71756520626F74656C6C6F6E00454D98
:102D7000455247454E434941005B524F4A4F5D2003
:102D800050617261646120646500457370657265AD
:102D900020706F72206661766F72202E2E2E004C8E
:102DA0004156414E444F20626F74656C6C6F6E00EB
:102DB0004C415641444F20646574656E69646F20D0
:102DC000706F72005B56455244455D2070617261C0
:102DD00020696E6963696172007061726120656C5F
:102DE000204C4C454E41444F004C4C454E414E44C6
:102DF0004F20626F74656C6C6F6E00656C204C4C7C
:102E0000454E414E4F005B56455244455D2072652C
:102E1000616E7564617200706F7220656C207573ED
:102E2000756172696F004C4C454E41444F2064659A
:102E300074656E69646F005675656C76612070729A
:102E40006F6E746F00736572766963696F7300509B
:102E50006F722075736172206E75657374726F7313
:102E600000212121204772616369617320212121A2
:102E7000007061726120766F6C76657220616C20E3
:102E80006D656E75207072696E636970616C00505B
:102E9000726573696F6E6520656C20626F746F6E0A
:102EA0002056455244450050524F4345534F20440D
:102EB0004554454E49444F005469706F2054617227
:0E2EC0006A652E20696E76616C69646100009F
:107E0000112484B714BE81FFF0D085E080938100F7
:107E100082E08093C00088E18093C10086E0809377
:107E2000C20080E18093C4008EE0C9D0259A86E02C
:107E300020E33CEF91E0309385002093840096BBD3
:107E4000B09BFECF1D9AA8958150A9F7CC24DD24C4
:107E500088248394B5E0AB2EA1E19A2EF3E0BF2EE7
:107E6000A2D0813461F49FD0082FAFD0023811F036
:107E7000013811F484E001C083E08DD089C08234E0
:107E800011F484E103C0853419F485E0A6D080C0E4
:107E9000853579F488D0E82EFF2485D0082F10E0AE
:107EA000102F00270E291F29000F111F8ED06801E7
:107EB0006FC0863521F484E090D080E0DECF843638
:107EC00009F040C070D06FD0082F6DD080E0C81688
:107ED00080E7D80618F4F601B7BEE895C0E0D1E017
:107EE00062D089930C17E1F7F0E0CF16F0E7DF06D8
:107EF00018F0F601B7BEE89568D007B600FCFDCFD4
:107F0000A601A0E0B1E02C9130E011968C91119780
:107F100090E0982F8827822B932B1296FA010C0160
:107F200087BEE89511244E5F5F4FF1E0A038BF0790
:107F300051F7F601A7BEE89507B600FCFDCF97BE46
:107F4000E89526C08437B1F42ED02DD0F82E2BD052
:107F50003CD0F601EF2C8F010F5F1F4F84911BD097
:107F6000EA94F801C1F70894C11CD11CFA94CF0C13
:107F7000D11C0EC0853739F428D08EE10CD085E9AC
:107F80000AD08FE07ACF813511F488E018D01DD067
:107F900080E101D065CF982F8091C00085FFFCCF94
:107FA0009093C60008958091C00087FFFCCF809118
:107FB000C00084FD01C0A8958091C6000895E0E648
:107FC000F0E098E1908380830895EDDF803219F02E
:107FD00088E0F5DFFFCF84E1DECF1F93182FE3DFCA
:107FE0001150E9F7F2DF1F91089580E0E8DFEE27F6
:047FF000FF270994CA
:027FFE00040479
:00000001FF
